:020000040800F2
:10000000207E00209D010008E121000863210008F6
:10001000DD21000829030008DB250008000000009E
:100020000000000000000000000000003B2200086B
:10003000A105000800000000392200083D22000848
:10004000B7010008B7010008B7010008B7010008B0
:10005000B7010008B7010008B7010008B7010008A0
:10006000B7010008B7010008B7010008B701000890
:10007000B7010008B7010008B7010008B701000880
:10008000B7010008B7010008B7010008B701000870
:10009000B7010008B7010008B7010008B701000860
:1000A000B7010008B7010008B7010008B701000850
:1000B000B7010008B7010008B7010008B701000840
:1000C000B7010008B7010008B7010008B701000830
:1000D000B7010008B7010008B7010008B701000820
:1000E000B7010008B7010008B7010008B701000810
:1000F000B7010008B7010008B7010008B701000800
:10010000B7010008B7010008B7010008B7010008EF
:10011000B7010008B7010008B7010008B7010008DF
:10012000B7010008B7010008B7010008B7010008CF
:10013000B7010008B1060008B7010008B7010008C0
:10014000B7010008B7010008B7010008B7010008AF
:10015000B7010008B7010008B7010008B70100089F
:10016000B7010008B7010008B7010008B70100088F
:10017000B7010008B7010008B7010008000000003F
:10018000B7010008B7010008DFF80CD000F0BAF89A
:10019000004800478D750008207E002006488047F3
:1001A00006480047FEE7FEE7FEE7FEE7FEE7FEE75C
:1001B000FEE7FEE7FEE7FEE70923000889010008E5
:1001C0002DE9F05F0546002092469B46884606468C
:1001D000814640241BE0284641464746224600F01F
:1001E00081F853465A46C01A914110D31146184619
:1001F000224600F068F82D1A67EB01084F462246A8
:100200000120002100F05FF817EB00094E41201E8D
:10021000A4F10104DFDC484631462A464346BDE8E6
:10022000F09F00000649074A0868504343F239022C
:10023000104408604008704701490860704700009A
:10024000E00000206D4EC64110B5431A934209D21A
:100250008318881803E010F8011D03F8011D521ED1
:10026000F9D210BD40EA01039B0703D009E008C999
:10027000121F08C0042AFAD203E011F8013B00F86B
:10028000013B521EF9D210BDD2B201E000F8012BA1
:10029000491EFBD270470022F6E710B513460A4606
:1002A00004461946FFF7F0FF204610BD30B504465E
:1002B0000020034600E05B1C934203D2E05CCD5C6F
:1002C000401BF8D030BD202A04DB203A00FA02F1AE
:1002D000002070479140C2F1200320FA03F3194334
:1002E00090407047202A04DB203A21FA02F00021D6
:1002F000704721FA02F3D040C2F120029140084336
:1003000019467047064C074D06E0E06840F00103CF
:1003100094E8070098471034AC42F6D3FFF738FF53
:100320000C0201082C02010800BFFEE710B50446CC
:1003300001F08CF906490968401AB0F5FA7F06D336
:1003400001F084F902490860204600F003F810BD6E
:10035000080000202DE9F04387B004460025002660
:1003600000274E480078012804D002280CD0052828
:100370007DD187E0022049490870204604F01AF830
:1003800047A002F02DF985E0444801784EA002F024
:1003900027F9204604F0C0F800284DD003203F493B
:1003A0000870656800204C49C87088704870022049
:1003B00008700846C0780090084683784278017833
:1003C00046A002F00DF9290E43484172290C017232
:1003D000290AC17101468D71407A00900846037A5E
:1003E000C279817946A002F0FBF8A668310E3A483E
:1003F0004173310C0173310AC17201468E72407B28
:1004000000900846037BC27A817A45A002F0E8F8A2
:10041000E768390E30484174390C0174390AC173E8
:1004200001468F73407C00900846037CC27B817B31
:1004300044A002F0D5F824E0D4F8248098F806000F
:1004400004281EDD042015490870204604F05EF8DB
:10045000454860606FF07F40A0604448E060201D28
:1004600006F074FA81464A4641A102A800E010E075
:1004700002F0C6F83FA002F0B3F802A942A002F0D1
:10048000AFF807E0204604F041F800200349087067
:1004900000E000BF00BF07B0BDE8F0830C00002003
:1004A000202053746174653A204C6F6F6B696E67DE
:1004B00020666F72204448435020736572766572DF
:1004C000202E2E2E0A000000444843505F737461B2
:1004D00074653D25640A0000CC340020204D414362
:1004E0002020B5D8D6B73A20202020202020202058
:1004F00025642025642025642025640A000000006E
:100500002044484350204745542049503A20202059
:1005100020202025642025642025642025640A00ED
:1005200020444843502047455420D7D3CDF8D1DA52
:10053000C2EB3A2025642025642025642025640A26
:100540000000000020444843502047455420C4ACDC
:10055000C8CFCDF8B9D83A20256420256420256479
:100560002025640A00000000C0A80134C0A80101D1
:1005700025730000444843502054696D656F7574BD
:10058000202121200A00000053746174696320490E
:100590005020616464726573733A2025730A000009
:1005A000704710B50146002226E002EB82040B6979
:1005B00003EBC4000023036043608360C3600362F5
:1005C00043624FF00043036044F2F85343604368D2
:1005D00023F00043436001F1480343F82200032A5B
:1005E00007D202EB82040B6903EBC4032833C36018
:1005F00001E00B69C360521C042AD6D30024CC65E9
:100600000C668C66CC668C650B6803F580530C69B0
:10061000DC6010BD10B50146002222E002EB82042E
:10062000CB6803EBC4000023036043608360C360B6
:1006300001F1180343F82200036843F480130360B8
:10064000032A07D202EB8204CB6803EBC4032833EE
:10065000C36001E0CB68C360036843F440030360F8
:10066000521C042ADAD300248C620B6803F58053F1
:10067000CC681C6110BD38B504460020009020688D
:1006800000F58050806940F48011206800F58050AA
:100690008161206800F5805080690090012000F0A1
:1006A00029FB0099206800F58050816138BD000069
:1006B00010B506F0A9FE4FF480310648006800F539
:1006C0008050416140210348006800F5805041613D
:1006D00010BD0000E433002030B50346147955798D
:1006E00044EA0520084C0C442064D478240695780C
:1006F00044EA0544557844EA0524157844EA05009F
:10070000014C0C44606430BD0080024010B5A4B0C0
:10071000044601208DF83C008DF83D0000200D902E
:100720008DF84B0001208DF84A0000208DF848001C
:1007300001208DF8300000208DF84C008DF83B0032
:1007400014908DF854001D908DF878001F908DF84E
:1007500082008DF880004FF480401090C0101190FE
:1007600000208DF881000BA9204600F087F90120B8
:100770008DF80C008DF80D008DF81D008DF80E0021
:10078000002005908DF81C008DF81E0008900120B7
:100790008DF824008DF8040000040290800106907A
:1007A0004012049001208DF8250000200A9000904E
:1007B0006946204600F002F924B010BD70B5044629
:1007C0000D462B4622460021044800F0C6FC10B11D
:1007D0004FF0FF3070BD0020FCE70000E433002044
:1007E00070B504460D462E46334622460021044885
:1007F00000F0F8FD10B14FF0FF3070BD0020FCE7B5
:10080000E43300202DE9F04F80460C46164608F1EF
:1008100018031A69D3F810904FF0000C53F8221007
:10082000A568E246086800F00040B0F1004F04D02F
:1008300003F1140050F8220010B10220BDE8F08F3F
:100840000CF1010C2868886048686FF30C00D5F83B
:1008500004B040EA0B004860207800F0010038B195
:10086000086820F44000D4F814B040EA0B00086097
:10087000207800F0200038B1086820F04060D4F8FB
:1008800010B040EA0B000860207800F0040018B1B6
:10089000086840F080000860086840F080500860F8
:1008A00000BF00BF00BFBFF35F8F00BF00BF00BF2E
:1008B000086840F0004008605DE0086820F00050E3
:1008C000086026B1086840F08040086003E00868CE
:1008D00020F08040086000BF521C042A00D3121F81
:1008E00000BF53F82210086820F0805008600868A4
:1008F00000F00040B0F1004F04D003F1140050F8B4
:100900002200E8B14A4653F82210002714E000BF45
:1009100000BF00BFBFF35F8F00BF00BF00BF08680C
:1009200020F00040086000BF521C042A00D3121FB0
:1009300000BF53F822107F1C6745E8D302207DE7F3
:100940000CF1010CAD682868886048686FF30C00F2
:10095000D5F804B040EA0B0048600AF1010A00BF74
:1009600000BF00BFBFF35F8F00BF00BF00BF0868BC
:1009700040F000400860A86800289ED126B10868B1
:1009800040F08040086003E0086820F08040086084
:10099000086840F00050086003F11400D3F824B058
:1009A00040F822B01A6172B60AF10100D3F828B0FB
:1009B0005844986262B6002040E7000070B50546D2
:1009C0000C46286800F5805086692B480640207B3D
:1009D00008B9012000E000208006617B40EA416008
:1009E000617F09B9012100E0002140EA0150A17BAB
:1009F00040EA415061690843217F40EAC110A17F6C
:100A000040EA8110216A084394F8241040EA8100EA
:100A10000643286800F580508661286800F58050FC
:100A20008669012000F066F9286800F5805086612B
:100A30002179A06840EA4160A1690843216908431F
:100A400094F8251040EAC110A16A40EA81002168AB
:100A5000084340F40001286800F5805001602868D0
:100A600000F580500668012000F044F9286800F580
:100A70008050066070BD0000233FDEF870B505466B
:100A80000C46286806683A480640207C08B90120D0
:100A900000E00020C005617C09B9012100E00021CF
:100AA00040EA8150A1680843E17F40EA0140616962
:100AB0000843A17F09B9012100E0002140EA41304B
:100AC000217F40EA0130A1690843217940EA812071
:100AD00094F8201009B9012100E0002140EA4120EA
:100AE000E17B40EAC110616A084394F8281040EAAB
:100AF000011006432868066028680668012000F097
:100B0000F9F828680660286886694FF64170064043
:100B1000A06C000494F84C1009B9012100E00021F8
:100B200040EAC110216D084394F85510012900D105
:100B300000E0002140EAC10094F85610012900D1DC
:100B400000E0002140EA810094F85410012900D10E
:100B500000E0002140EA41000643286886612868D9
:100B60008669012000F0C6F82868866170BD000023
:100B70000F8120FF2DE9F8430446002000904FF03C
:100B80000108A66E04F1480050F82650E76E2FE0E9
:100B9000286A58B9684600F015FB009810B94FF064
:100BA000000803E0009828620098A860B8F1000FE0
:100BB0001ED0A06D10B91648686002E044F2F850EB
:100BC000686000BF00BF00BFBFF35F8F00BF00BF02
:100BD00000BF286840F00040286000BF761C042E4B
:100BE00000D3361F00BF04F1480050F826507F1E86
:100BF00017B1B8F1000FCBD1E06EB84206D000219A
:100C0000206800F580508160A666E766BDE8F8833D
:100C1000F845008008B50020009069460120FFF7E4
:100C2000CDFD69460120FFF7C9FD009800F00400E2
:100C300008B9012008BD69460020FFF7BFFD0098F4
:100C400000F48050B0F5805F1FD0009800F4005091
:100C5000B0F5005F07D1009800F48070B0F5807F98
:100C600001D10220E6E7009800F40050B0F5005FE3
:100C700001D10320DEE7009800F48070B0F5807F9A
:100C800001D10420D6E70520D4E769461F20FFF7ED
:100C900095FD009800F4805008B90620CAE7009836
:100CA00000F01C00182801D10220C3E7009800F0D2
:100CB0001C00082801D10320BCE7009800F01C00AC
:100CC000142801D10420B5E70520B3E710B5044688
:100CD00000F0BCFC06490968401A642806D300F0FD
:100CE000B5FC03490860204604F036FD10BD000045
:100CF0001000002070B5044600F0A8FC064625460A
:100D0000681C10B104480078054400BF00F09EFC48
:100D1000801BA842FAD370BD1C000020024609B90E
:100D20000120704710680068C0F3001081F82800A7
:100D30001068006800F06000486210680068C0F346
:100D4000402080F0010081F8200010680068C0F3A6
:100D50000040C87710680068C0F3403080F00100A0
:100D6000887710680068C0F3003008771068006862
:100D700000F4006088611068006800F480404861F9
:100D800010680068C0F3805080F00100487410685B
:100D90000068C0F3C05080F001000874106800685B
:100DA000C0F3C010C8731068006800F46020886049
:100DB00010680068C0F38020087110688069C0F373
:100DC000400081F8540010688069C0F3C01080F0C2
:100DD000010081F84C001068806900F0300008655F
:100DE00010688069000C886410688069C0F3800016
:100DF00081F8560010688069C0F3C00081F8550082
:100E000000208EE738B504460CB9012038BDD4F86F
:100E1000840028B92320C4F88400204600F05CF840
:100E200000BF002000902A48006840F48040284914
:100E300008600846006800F48040009000BF00BFD2
:100E40002448006820F40000224908600846006831
:100E5000A16808431F49086008460068206800F53B
:100E60008050006840F00101206800F5805001606A
:100E700000F0ECFB05460DE000F0E8FB401BB0F590
:100E8000FA7F07D90420C4F88800E020C4F8840061
:100E90000120BBE7206800F58050006800F00100E9
:100EA0000028E9D12046FFF731FC2046FFF7B2FBCE
:100EB0002046FFF776FB002120466268FFF70CFC16
:100EC0000020C4F888001020C4F8840000209DE7AA
:100ED000443802400438014010B586B0044600BFD3
:100EE000002000905748006840F001005549086014
:100EF0000846006800F00100009000BF00BF00BF7E
:100F0000002000900846006840F004000860084691
:100F1000006800F00400009000BF00BF00BF002088
:100F200000900846006840F002000860084600682B
:100F300000F00200009000BF00BF00BF0020009042
:100F40000846006840F0400008600846006800F06D
:100F50004000009000BF00BF00BF00BF0020009015
:100F60000846006840F0007008600846006800F01D
:100F70000070009000BF00BF00BF00200090084636
:100F8000006840F0806008600846006800F08060FB
:100F9000009000BF00BF00BF00200090084600681E
:100FA00040F0006008600846006800F000600090B3
:100FB00000BF00BF00BF01220421234800F040FB16
:100FC0000420019001200290002003900220049050
:100FD00001A91D4800F03AFA322001900220029047
:100FE00000200390032004900B20059001A91748CE
:100FF00000F02CFA8620019002200290002003903D
:10100000032004900B20059001A9114800F01EFA5E
:101010004FF4D04001900220029000200390032062
:1010200004900B20059001A90A4800F00FFA002255
:1010300001213D2000F094FB3D2000F081FB06B033
:1010400010BD000030380240000402400008024099
:1010500000000240001802402DE9F05F04460F46F0
:101060004FF00008C34647B9D4F8880040F00100AB
:10107000C4F888000120BDE8F09FD4F8840023283C
:1010800001D00120F7E7E66D04F1480050F8265042
:10109000E06EC0F1040942E0286800F4807018B1E5
:1010A000A969A167E9696167286800F4007008B957
:1010B000E06F40B3286800F4007010B10021216691
:1010C0006166D4F814A0286800F4807040B12868E4
:1010D000C0F30D40A0F1040A296821674FF0010B0D
:1010E000A86828621FFA8AF304F18001081F2A6A9F
:1010F00000F08CF8206E401C2066606E00EB0A0148
:1011000061660020286200BF761C042E00D3361FC3
:1011100000BF04F1480050F8265008F10108286883
:1011200000F0004020B9C84502D2BBF1000FB3D097
:10113000E06E00EB0801E166E06E10B12046FFF7BB
:1011400019FDE665BBF1010F05D1E06F38600021A4
:10115000E16700208FE701208DE72DE9F047054684
:101160000E46174698462868046904F01C044FF49C
:10117000784000EAC62004434FF4F86000EA871084
:10118000044324F0020444F001042868046100F0E0
:101190005DFA81460BE000F059FAA0EB0900B0F5CA
:1011A000803F02D30120BDE8F0872868046904F07D
:1011B00001000028EFD12868406980B2C8F800001B
:1011C0000020F0E77CB504460D4806F0DBFE05463E
:1011D00085B105F1200020600A4828614FF47A713A
:1011E00020682B464122CDE900010021084607F086
:1011F00055FD04E0012004490870002020607CBDFA
:101200002CFF00081D94000804000020F0B50446DF
:101210000D4621462E460020A2F12000002707603F
:10122000078143810F680FB9086001E037683860B3
:101230003060086803E007891F44078100680028C0
:10124000F9D1F0BD70B504460D460DB9012070BD51
:10125000D4F88400102805D129462046FFF70EFC5B
:101260000020F4E70120F2E770B50446D4F88400CA
:1012700010283DD12320C4F884000421E1662046D3
:10128000FFF778FC2068006840F0080021680860DB
:10129000206805680120FFF72DFD206805602068A3
:1012A000006840F00400216808602068056801209B
:1012B000FFF720FD206805602046FFF7DCF9206875
:1012C00000F58050806940F40051206800F580509E
:1012D0008161206800F58050806940F0020120683B
:1012E00000F5805081612320C4F88400002070BD87
:1012F0000120FCE72DE9F041044688461546B8F187
:10130000000F08D1D4F8880040F00100C4F888002C
:101310000120BDE8F081D4F88400232860D10022A8
:1013200041462046FFF76EFA38B1D4F8880040F005
:101330000200C4F888000120EBE700BF00BF00BF37
:10134000BFF34F8F00BF00BF00BF04F11800A16AB8
:1013500050F8217000BFA06A401CA062A06A042857
:1013600002D3A06A001FA06200BF04F11800A16AA6
:1013700050F82110206800F58050416000F066F9B7
:10138000064627E0206800F58050406900F40050D0
:1013900068B1D4F8880040F00800C4F888002068DC
:1013A00000F580504069C4F88C000120B1E7681C4A
:1013B00080B100F04BF9801BA84200D855B9D4F891
:1013C000880040F00400C4F888004FF040503860B6
:1013D00001209EE7386800F000400028D2D198E74D
:1013E000012096E72DE9F04705460E461746984638
:1013F0002868046904F01C044FF4784000EAC62011
:1014000004434FF4F86000EA8710044344F00204F8
:1014100044F001041FFA88F02968486128680461D3
:1014200000F014F981460BE000F010F9A0EB090080
:10143000B0F5803F02D30120BDE8F0872868046939
:1014400004F001000028EFD100BFF5E7F8B502462F
:101450000B460025002400200021D6E0012606FAD4
:1014600001F51E6806EA0504AC4274D11E7906F047
:101470000306012E04D01E7906F00306022E13D1B6
:1014800090684F000326BE40B0434F00DE68BE4068
:1014900030439060506801268E40B0431E79C6F3F9
:1014A00000168E40304350601E7906F00306032E6E
:1014B00009D0D0684F000326BE40B0434F009E685D
:1014C000BE403043D0601E7906F00306022E13D1D1
:1014D000CF0802F1200656F827004E07F70E0F2618
:1014E000BE40B0434F07FF0E1E69BE403043CF08D9
:1014F00002F1200646F8270010684F000326BE4080
:10150000B0431E7906F003064F00BE403043106022
:101510005E6806F44036002E76D000BF00260096A6
:101520003C4E366846F480463A4F3E603E4636684A
:1015300006F48046009600BF00BF374E8F0856F86D
:1015400027008E07370F0F26BE40B043334EB242FE
:1015500002D1002624E057E0314EB24201D10126EB
:101560001EE0304EB24201D1022619E02E4EB242A8
:1015700001D1032614E02D4EB24201D104260FE022
:101580002B4EB24201D105260AE02A4EB24201D1C9
:10159000062605E0284EB24201D1072600E00826C3
:1015A0008F073F0FBE4030431B4E8F0846F8270081
:1015B000224E3068A0435E6806F4801606B12043D0
:1015C0001E4E3060361D3068A0435E6806F400167B
:1015D00006B12043194E361D3060184E361F306854
:1015E000A0435E6806F4003606B12043134E361F52
:1015F0003060361F3068A0435E6806F4803606B15E
:1016000020430E4E083E3060491C1029FFF426AFDF
:10161000F8BD000044380240083801400000024094
:101620000004024000080240000C0240001002408A
:101630000014024000180240001C0240083C014017
:101640000AB1816101E00B048361704701480068C1
:10165000704700001400002003480068034909781F
:101660000844014908607047140000201C00002055
:1016700010B50D48006840F400700B49086008463A
:10168000006840F4806008600846006840F480709C
:101690000860032000F0A2F80F2000F007F800F027
:1016A0002BF8002010BD0000003C024070B504463D
:1016B0000E4800784FF47A71B1FBF0F00C490968DC
:1016C000B1FBF0F5284600F058FC08B1012070BDD0
:1016D000102C07D200222146501E00F041F8054888
:1016E000046001E00120F2E70020F0E71C00002088
:1016F000200000201800002008B500BF0020009046
:101700000E48006840F480400C49086008460068B4
:1017100000F48040009000BF00BF00BF0020009098
:10172000081F006840F08050091F086008460068E4
:1017300000F08050009000BF00BF08BD4438024058
:1017400001460846002809DB00F01F0301229A40E9
:1017500043099B0003F1E023C3F8002100BF704759
:101760002DE9F05F80460D461646002700F05CFF2D
:10177000074639462A46334601F00700C0F1070AFA
:10178000BAF1040F02D94FF0040A01E0C0F1070AD0
:10179000D14600F1040ABAF1070F02D24FF0000A55
:1017A00001E0A0F1030AD4464FF0010A0AFA09FA4F
:1017B000AAF1010A0AEA020A0AFA0CFA4FF0010B2E
:1017C0000BFA0CFBABF1010B0BEA030B4AEA0B041F
:1017D0002146404600F030FFBDE8F09F00BF00F01A
:1017E0000702064B19684FF6FF031940044B0B43E1
:1017F00043EA0221014B196000BF70470CED00E085
:101800000000FA057047000070B504460D460CB99B
:10181000012070BD5848006800F00700A84209D2B6
:1018200055490D700846006800F00700A84201D035
:101830000120EEE7207800F0020002281DD1207878
:1018400000F00400042805D14C48006840F4E05042
:101850004A490860207800F00800082805D1474868
:10186000006840F46040454908604448006820F042
:10187000F000A168084341490860207800F00100A9
:10188000A8B36068012807D13C4808380068C0F355
:101890004040B8B90120BCE76068022802D0606807
:1018A000032807D1354808380068C0F3406048B9BC
:1018B0000120AEE7314808380068C0F3400008B99D
:1018C0000120A6E72D48006820F003006168084366
:1018D0002A490860FFF7BAFE064609E0FFF7B6FEA0
:1018E000801B41F28831884202D9032091E707E04A
:1018F0002248006800F00C006168B0EB810FEDD168
:101900001D48006800F00700A84209D91A490D7067
:101910000846006800F00700A84201D0012078E7DF
:10192000207800F00400042807D11448006820F44F
:10193000E050E168084311490860207800F0080091
:10194000082808D10D48006820F46040216940EA69
:10195000C1000A49086000F045F808490968C1F368
:101960000311074A515CC8400649086006480068F0
:10197000FFF79CFE00204CE7003C02400838024084
:1019800038FF000820000020180000200120014935
:10199000C864704700004742014800687047000073
:1019A0002000002000B5FFF7F7FF04490968C1F3E4
:1019B0008221034A515CC84000BD00000838024043
:1019C00048FF000800B5FFF7E7FF04490968C1F3C5
:1019D0004231034A515CC84000BD00000838024053
:1019E00048FF00082DE9F047002400250026A14605
:1019F0002548006800F00C0020B1042805D0082814
:101A00003AD105E0DFF8849039E0DFF8849036E0E1
:101A10001D48001F006800F03F041B48001F0068BD
:101A200000F4800078B11A481749091F0968C1F30A
:101A30008811A0FB01700146224600233846FEF7BC
:101A4000BFFB05460EE011480F49091F0968C1F3A5
:101A50008811A0FB01700146224600233846FEF79C
:101A6000AFFB05460848001F0068C0F30140401C5A
:101A70004600B5FBF6F902E0DFF8109000BF00BFAA
:101A80004846BDE8F0870000083802400024F40012
:101A900000127A0010B50648006800F08000802827
:101AA00005D1FFF7AFFE80200149891C087010BDE9
:101AB0000C380240F8B504460CB90120F8BD207876
:101AC00000F00100002874D0F948006800F00C0014
:101AD00004280DD0F648006800F00C00082813D147
:101AE000F348001F006800F48000B0F5800F0BD1B0
:101AF000EF4808380068C0F34040002859D06068BB
:101B0000002856D10120D9E700BF6068B0F5803FBA
:101B100008D1E7480838006840F48030E4490839C3
:101B200008601EE06068B0F5A02F0DD1E0480838CD
:101B3000006840F48020DE490839086008460068E3
:101B400040F4803008600CE0D9480838006820F480
:101B50008030D749083908600846006820F48020A2
:101B6000086000BF606890B1FFF770FD054606E0B1
:101B7000FFF76CFD401B642801D903209EE7CC4889
:101B800008380068C0F340400028F1D011E0FFF7AA
:101B90005DFD054606E0FFF759FD401B642801D9AD
:101BA00003208BE7C24808380068C0F34040002893
:101BB000F1D1207800F0020002285FD1BC48006813
:101BC00000F00C0058B1BA48006800F00C0008287A
:101BD0001CD1B748001F006800F48000B0B9B448B9
:101BE00008380068C0F3400020B1E068012801D047
:101BF000012063E7AE480838006820F0F80021694A
:101C000040EAC100AA490839086037E0E06800B33B
:101C10000120A8490860FFF719FD054606E0FFF717
:101C200015FD401B022801D9032047E7A0480838CA
:101C30000068C0F340000028F1D09D4808380068D3
:101C400020F0F800216940EAC1009949083908608C
:101C500014E0002097490860FFF7F8FC054606E00D
:101C6000FFF7F4FC401B022801D9032026E7904827
:101C700008380068C0F340000028F1D1207800F057
:101C8000080008282CD16069A8B101208A490860A1
:101C9000FFF7DCFC054606E0FFF7D8FC401B0228F6
:101CA00001D903200AE782486C300068C0F3400085
:101CB0000028F1D014E000207F490860FFF7C6FC3F
:101CC000054606E0FFF7C2FC401B022801D90320AD
:101CD000F4E677486C300068C0F340000028F1D18A
:101CE000207800F00400042870D1002770483830B4
:101CF000006800F0805090B900BF002000906C4850
:101D00003830006840F08050694938310860084632
:101D1000006800F08050009000BF00BF01276748B6
:101D2000006800F48070B0B96448006840F48070C6
:101D300062490860FFF78AFC054606E0FFF786FC6B
:101D4000401B022801D90320B8E65C48006800F473
:101D500080700028F2D000BFA068012808D1544844
:101D60006830006840F001005149683108601DE0AA
:101D7000A06805280DD14E486830006840F0040086
:101D80004B49683108600846006840F0010008606F
:101D90000CE047486830006820F001004449683191
:101DA00008600846006820F00400086000BFA068D2
:101DB000A8B1FFF74BFC054609E0FFF747FC401BC5
:101DC00041F28831884202D9032077E626E038487C
:101DD00068300068C0F340000028EED013E0FFF741
:101DE00035FC054608E0FFF731FC401B41F2883125
:101DF000884201D9032061E62D4868300068C0F3AD
:101E000040000028EFD1012F07D129483830006861
:101E100020F0805026493831086000BFA0690028B2
:101E200045D02348006800F00C0008285DD0A06968
:101E3000022845D100201F490866FFF707FC054628
:101E400006E0FFF703FC401B022801D9032035E61A
:101E5000174808380068C0F340600028F1D1D4E981
:101E600007010843616A40EA81110122A06AC2EBBE
:101E7000500041EA00412C20005D41EA00600C491D
:101E8000091F086001200B490866FFF7DFFB0546C4
:101E900006E0FFF7DBFB401B022801D903200DE61B
:101EA000034808380068C0F340600028F1D049E0DA
:101EB0000838024000004742800E47420070004050
:101EC000002021490866FFF7C1FB054606E0FFF741
:101ED000BDFB401B022801D90320EFE51B48006829
:101EE000C0F340600028F2D12CE0A069012800D1A5
:101EF000E4E51648001D0668A069012820D006F414
:101F00008001E06981421BD106F03F01206A8142D5
:101F100016D147F6C0703040616AB0EB811F0FD117
:101F200006F440310122A06AC2EB5000B1EB004F31
:101F300006D106F070612C20005DB1EB006F01D07E
:101F40000120BBE50020B9E500004742003802400F
:101F5000042808D14FF0E021096941F004014FF055
:101F6000E022116107E04FF0E021096921F004014E
:101F70004FF0E02211617047704770B50446254666
:101F8000681EB0F1807F01D301200FE0681E4FF082
:101F9000E02148610F214FF0FF3000F04DFB0020A1
:101FA0004FF0E021886107200861002070BD10B566
:101FB000FFF7E2FF10BD10B504460CB9012010BDBB
:101FC000A06900B100E000BF94F83D0028B90020EE
:101FD00084F83C00204600F027F8242084F83D00D7
:101FE0002068C06820F400502168C860204600F0D6
:101FF00095F92068006920F4904021680861206804
:10200000406920F02A00216848612068C06840F4D7
:1020100000502168C86000202064202084F83D0022
:1020200084F83E000020CAE710B586B00446154982
:102030002068884224D100BF002000901248006828
:1020400040F40020104908600846006800F40020B1
:10205000009000BF00BF08150190022002900120EF
:102060000390032004900820059001A90748FFF77A
:10207000EDF94FF40060019001A90448FFF7E6F97B
:1020800006B010BD004C004040380240000802403D
:102090002DE9F84F04460E46174699464FF0000AC0
:1020A00094F83D0020285AD106B117B90120BDE8A7
:1020B000F88F00BF94F83C00012801D10220F6E718
:1020C000012084F83C0000BF00202064212084F817
:1020D0003D00FFF7BBFA8246A784E784A068B0F50D
:1020E000805F04D1206910B90025B04602E0354672
:1020F0004FF0000800BF002084F83C0000BF1BE048
:102100005346002280212046CDF8009000F01CFAB2
:1021100008B10320CBE745B9B8F80000C0F30800C8
:102120002168486008F1020803E0287821684860C7
:102130006D1CE08C401EE084E08C0028E0D153460A
:10214000002240212046CDF8009000F0FDF908B1B2
:102150000320ACE7202084F83D000020A7E7022000
:10216000A5E700BFFEE708B5002000906946FEF72E
:1021700025FB009840F480500090009881B2002028
:10218000FEF72EFB08BD000008B500BF0020009040
:102190000F48006840F004000D49086008460068D8
:1021A00000F00400009000BF00BF0A480A49086020
:1021B0004FF4E1304860002107488160C16001614F
:1021C0000C21416100218161C161FFF7F4FE08BD6E
:1021D00030380240004C0040E034002000BFFEE7F1
:1021E000FFF758FC00BFFEE700B587B005F050F9D7
:1021F00000200690059004900B480C49002204AB87
:10220000CDE90021029005AA06A9094805F006FFBC
:10221000074806F075F9064803F02AFB054904480B
:1022200006F0DAF907B000BD95560008E559000838
:10223000E8000020715800087047704710B5FFF79C
:102240000BFAFFF7B4FE10BD10B592B000BF00202E
:1022500000902B48006840F08050294908600846EB
:10226000006800F08050009000BF00BF00BF002059
:1022700000902448006840F48040224908600846E5
:10228000006800F48040009000BF00BF012006906D
:102290000004079002200C9041050D9108210E9139
:1022A0004FF4A8710F91022110910721119106A8F6
:1022B000FFF700FC0F200190022002900020039005
:1022C0004FF4A05004904FF480500590052101A8D0
:1022D000FFF79AFAFFF75AFBFFF75EFB4FF47A71AC
:1022E000B0FBF1F42046FFF748FE0420FFF730FE74
:1022F00000221146501EFFF733FA12B010BD000045
:1023000040380240007000400348006840F470000C
:10231000014908607047000088ED00E02DE9F84FA2
:1023200004462068006920F44050E16808432168B1
:1023300008612169A068084361690843E1690843AD
:1023400000902068C06849F20C61884300990843F6
:102350002168C8602068406920F44070A169084382
:102360002168486176492068884203D07549206811
:10237000884203D1FFF726FB814602E0FFF712FBFC
:102380008146E069B0F5004F6CD102206168A0FB86
:10239000015003461920A9FB007001462A46384621
:1023A000FDF70EFF6421B0FBF1F04FEA001A0220A6
:1023B0006168A0FB01510B461920A9FB00712A4658
:1023C0003846FDF7FDFE834602206168A0FB015000
:1023D00003461920A9FB00712A463846FDF7F0FE96
:1023E0006421B0FBF1F000EBC00101EB0010ABEB9E
:1023F0008000322101EBC0006421B0FBF1F000F05D
:10240000F8000AEB400A02206168A0FB0150034675
:102410001920A9FB007001462A463846FDF7D0FE78
:10242000834602206168A0FB015003461920A9FBE6
:1024300000712A463846FDF7C3FE6421B0FBF1F077
:1024400000EBC00101EB0010ABEB8000322101EB8F
:10245000C0006421B0FBF1F000F007005044216897
:1024600088606AE004206168A0FB015003461920DF
:10247000A9FB007001462A463846FDF7A1FE8246B8
:1024800004206168A0FB015003461920A9FB0070DD
:1024900001462A463846FDF793FE6421B0FBF1F071
:1024A00000EBC00101EB0010AAEB8000322101EB30
:1024B00000106421B0FBF1F000F0F00A0420616824
:1024C000A0FB017003461920A9FB00513A4628469B
:1024D000FDF776FE6421B0FBF1F00AEB001A042050
:1024E0006168A0FB01510B461920A9FB00712A4627
:1024F0003846FDF765FE834604206168A0FB015065
:1025000003461920A9FB007001462A463846FDF70C
:1025100057FE6421B0FBF1F000EBC00101EB0010AD
:10252000ABEB8000322101EB00106421B0FBF1F035
:1025300000F00F00504421688860BDE8F88F00006B
:1025400000100140001401402DE9F04104460D4601
:1025500017469846069E34E0701C88B32EB1FFF7EC
:1025600075F8A0EB0800B0422BD900BF00BF21686E
:102570000C3151E8001F21F4D07021680C3141E882
:102580000002002AF3D100BF00BF00BF2168143150
:1025900051E8001F21F001002168143141E80002D8
:1025A000002AF3D100BF202084F83D0084F83E00CB
:1025B00000BF002084F83C0000BF0320BDE8F0818C
:1025C000FFE7206800682840A84201D1012000E010
:1025D0000020B842C0D00020F0E700BFFEE70000B6
:1025E0000FB4054B10B503A9044A029800F048F84F
:1025F00010BC5DF814FB00009D5A0008E4000020A8
:102600000FB4084B10B504A902AA039800F038F8DB
:10261000044602A9002000F093F9204610BC5DF8A2
:1026200014FB00004129000802480068C0F30220A2
:10263000704700000CED00E010B5002804DB0A072D
:10264000130E054A135406E00A07140E034A00F05D
:102650000F031B1FD45410BD00E400E018ED00E090
:1026600002E008C8121F08C1002AFAD1704770475B
:10267000002001E001C1121F002AFBD170470000B9
:102680002DE9FF4F8DB09B460F460446002606E01D
:1026900025280BD05A460F999047641C761C207849
:1026A0000028F5D111B03046BDE8F08F0025A846CE
:1026B0000122984900E0054314F8013F203B02FA4B
:1026C00003F00842F7D120782E2817D114F8010F13
:1026D00045F004052A280ED06FF02F022078A0F1D3
:1026E000300109290AD808EB880102EB410100EB0F
:1026F0000108641CF2E757F8048B641C20786C28EE
:102700000DD004DC4C2812D06A2811D104E07428C2
:102710000DD07A280CD10AE045F4001507E0617865
:1027200045F48015814202D1641C05F58015641CB6
:102730002278692A45D008DC002AB3D0582A69D00B
:10274000632A10D0642A08D13BE0702A67D0732A2C
:1027500013D0752A5CD0782A5CD010465A460F995F
:102760009047761CD3E017F8040B8DF8000000208A
:102770008DF80100E946012003E057F8049B4FF073
:10278000FF3069074FF0000501D40AE06D1C454594
:102790000DDA8542FADB19F805100029F6D106E0BA
:1027A0006D1C8542FCDB19F805100029F8D12E4478
:1027B00004E019F8010B5A460F9990476D1EF8D2A4
:1027C000A5E00A200021CDE90801C5F30250022846
:1027D0000DD001CFC117031E71F100030DDA4FF0C8
:1027E000000CD0EB0C006CEB01012D2308E0FF1D69
:1027F00027F00707F7E80201EDE72B0504D52B23A7
:102800008DF8283001233BE0EB0739D02023F7E790
:102810000A2000E010200021CDE9080107E0102087
:10282000002145F00405CDE908014FF00808C5F383
:10283000025002280FD001CF00214FF0000A2B07D1
:102840001FD5702A0DD0DDE908C38CF0100C5CEAAE
:10285000030C0CD015E0FF1D27F00707F7E8020175
:10286000EBE740228DF828204FF0010A0BE050EAF8
:10287000010306D030238DF828308DF8292002235B
:102880009A46582A04D024A20DF120090B9209E09F
:1028900026A2F9E7DDE90823FDF792FC0B9B9B5C80
:1028A00009F8013D50EA0102F4D1ADEB09002030F6
:1028B0000890680701D44FF001080899884502DDA7
:1028C000A8EB010000E000208046002506E00AA8F1
:1028D0005A46405D0F9990476D1C761C5545F6DBB6
:1028E00004E030205A460F999047761CB8F1000159
:1028F000A8F10108F5DC05E019F8010B5A460F991B
:102900009047761C0899481E08900029F4DC641C46
:10291000C5E600000928010030313233343536373E
:10292000383961626364656600000000303132331B
:1029300034353637383941424344454600000000BB
:102940000A68531C0B6010707047000070B5054694
:102950000E4600BF002D09D100BF0CA340F28B3200
:1029600018A11CA0FFF73CFE00BF70BD00BF6C6A41
:102970004CB16079082806D13068E169884202D1FB
:10298000284600F0E3FA00BFEFE700002E2E5C4D72
:102990006964646C6577617265735C5468697264BC
:1029A0005F50617274795C4C7749505C7372635C00
:1029B000636F72655C697076345C646863702E6303
:1029C000000000006E6574696620213D204E554C64
:1029D0004C000000417373657274696F6E2022258C
:1029E0007322206661696C6564206174206C696E75
:1029F0006520256420696E2025730A007CB5064693
:102A000000BF002E09D100BF46A340F2154253A1DA
:102A100059A0FFF7E5FD00BF7CBD00BF746A00BF91
:102A2000002C09D100BF3FA340F217425CA152A085
:102A3000FFF7D6FD00BFEFE700BF00206082A06A6D
:102A4000401C70B1A06A1E303C21B0FBF1F5B5F519
:102A5000803F01D34FF6FF75A582A08A08B90120F7
:102A6000A082E06A401C80B1E06A1E303C21B0FBCD
:102A7000F1F5B5F5803F01D34FF6FF7565816089AB
:102A800008B9012060816089E081206B401C80B121
:102A9000206B1E303C21B0FBF1F5B5F5803F01D332
:102AA0004FF6FF75A581A08908B90120A081A089F2
:102AB00020826089A189884204DBA089002801DD89
:102AC00000206081E07910B1206A01900FE0207F42
:102AD0007F2802DCFF21019108E0C02803DB6FF0B2
:102AE0007F41019102E04FF6FF71019100BF606AE2
:102AF0000090009848B900BFE06901990840009033
:102B000000BF009840F0807000900A21204601F03C
:102B100049FC6B4601AA04F11C01304605F0C0FCDB
:102B200000BF79E72E2E5C4D6964646C6577617235
:102B300065735C54686972645F50617274795C4C4F
:102B40007749505C7372635C636F72655C69707621
:102B5000345C646863702E63000000006468637016
:102B60005F62696E643A206E6574696620213D205B
:102B70004E554C4C00000000417373657274696FD0
:102B80006E2022257322206661696C656420617461
:102B9000206C696E6520256420696E2025730A000B
:102BA000646863705F62696E643A20646863702071
:102BB000213D204E554C4C002DE9F04105466C6AF4
:102BC0000821204601F0EEFB002204F11C012846FA
:102BD00002F00AFA0746A079FF2802DAA079401C21
:102BE000A0714FF4FA7606F2F310314690FBF1F043
:102BF0002081BDE8F081000070B51848056829E023
:102C00006C6A34B3607920B3A08A68B1608A401CD2
:102C100080B26082A18A884206D1284601F0D0F9AC
:102C2000284601F0C7FB14E0208A40B1218A481EE3
:102C30002082012903D1284601F0A3FC09E0E089A4
:102C400038B1E189481EE081012902D1284601F00E
:102C500077FC2D68002DD3D170BD000078000020D6
:102C60002DE9F05F07460D4616469A4600BF002F35
:102C70000BD100BF48A340F2697255A15CA0FFF7D9
:102C8000AFFC00BF0020BDE8F09F00BF00BF002DDB
:102C90000AD100BF40A340F26A725FA154A0FFF7BF
:102CA0009FFC00BF0020EEE700BF4FF420724FF4FE
:102CB0009A71362005F046FE8146B9F1000F01D128
:102CC0000020E0E700BFB9F80A00B0F59A7F08D20B
:102CD00000BF31A340F2717257A145A0FFF780FCFD
:102CE00000BF00BF032E02D16879032808D1A8795C
:102CF00018B9FDF797FA604908605F4800682860D6
:102D0000D9F804404FF49A712046FDF7C4FA012027
:102D10002070607097F83000A070286804F0A4FB61
:102D20006060082E0BD0042E09D0072E07D0032E8A
:102D300007D16879052802D06879042801D178681C
:102D4000E0604FF000080BE007F12A0010F80810CF
:102D500004F11C0000F8081008F101001FFA80F8C7
:102D6000B8F1060FF0D34548C4F8EC000123352232
:102D700004F1F001002000F041FB8346324604F1EB
:102D8000F001584600F08CFB8346BAF1000F01D0E9
:102D9000AAF800B0484676E72E2E5C4D6964646C54
:102DA0006577617265735C54686972645F506172C3
:102DB00074795C4C7749505C7372635C636F7265C5
:102DC0005C697076345C646863702E630000000098
:102DD000646863705F6372656174655F6D73673AA1
:102DE000206E6574696620213D204E554C4C0000D4
:102DF000417373657274696F6E2022257322206699
:102E000061696C6564206174206C696E652025645D
:102E100020696E2025730A00646863705F637265C1
:102E20006174655F6D73673A206468637020213D4B
:102E3000204E554C4C000000646863705F637265FF
:102E40006174655F6D73673A20636865636B2074B6
:102E5000686174206669727374207062756620639D
:102E6000616E20686F6C6420737472756374206483
:102E70006863705F6D73670038000020638253637E
:102E800010B500BF0E480078002807DC00BF0DA376
:102E9000FF221AA122A0FFF7A3FB00BF00BF084832
:102EA0000078401E064908700846007830B9264868
:102EB00000680CF0ABFD00202349086010BD000045
:102EC000340000202E2E5C4D6964646C657761725D
:102ED00065735C54686972645F50617274795C4CAC
:102EE0007749505C7372635C636F72655C6970767E
:102EF000345C646863702E63000000006468637073
:102F00005F7063625F726566636F756E7428293ADD
:102F100020726566636F756E74206572726F7200E1
:102F2000417373657274696F6E2022257322206667
:102F300061696C6564206174206C696E652025642C
:102F400020696E2025730A00300000202DE9FE4F15
:102F50000646746A0C21204601F024FA02AB0422D2
:102F600021463046FFF77CFE054665B3D5F8048060
:102F70000423322208F1F001BDF8080000F03EFA07
:102F80000290E06904F070FA8246524608F1F001BE
:102F9000BDF8080000F0E8FA02902A4608F1F001B6
:102FA000BDF8080000F0C4FB11484323114A29462C
:102FB000CDE90060104800680CF05EFE0746284628
:102FC00006F05EF901E04FF0FF37A079FF2802DA42
:102FD000A079401CA07142F2107909F2F3104FF46D
:102FE000FA7190FBF1F020813846BDE8FE8F0000B9
:102FF00050FF000854FF0008300000202DE9FE4F6C
:1030000007467C6A4FF0000A0020E0610621204656
:1030100001F0C8F902AB012221463846FFF720FE35
:103020000546002D42D06E680223392206F1F001D8
:10303000BDF8080000F0E2F902903A8D06F1F001C7
:10304000BDF8080000F008FB02900323372206F1C8
:10305000F001BDF8080000F0D1F90290D0460DE073
:10306000224810F8082006F1F001BDF8080000F031
:1030700017FA029008F1010000F0FF08B8F1030F01
:10308000EED32A4606F1F001BDF8080000F050FB2F
:1030900017484323174A2946CDE9007016480068AF
:1030A0000CF0EAFD284606F0EBF800BFA079FF28F7
:1030B00002DAA079401CA071A079062803DAA17970
:1030C0000120884000E03C2000EB4001C1EBC01033
:1030D0004FF6FF7101EAC00909F2F3104FF4FA71DB
:1030E00090FBF1F020815046BDE8FE8F2C000020BF
:1030F00050FF000854FF00083000002070B50C4855
:10310000056812E06C6A7CB12089012803DD208902
:10311000401E208108E02089012805D12089401E19
:103120002081284601F051FA2D68002DEAD170BDAA
:103130007800002070B505460E466C6A00202062BB
:1031400060621A48C07810B11948C068A062174878
:10315000007918B116480069E06202E0A06A4008F0
:10316000E0621248407918B111484069206304E0D8
:10317000A06AC0EBC000C00820633069E0610B4862
:10318000807938B10A49886904F06EF9206201201B
:10319000E07101E00020E0710448C07920B10449E9
:1031A000C86904F061F9606270BD0000240000206D
:1031B0002435002070B50446656A0C21284601F0CC
:1031C000F1F8054B1A461146204605F069F92046EC
:1031D000FFF714FF70BD000050FF000870B50546F2
:1031E0000E466C6A0748807858B100202081064955
:1031F000886804F039F9A0613069E061284600F080
:10320000BBFF70BD240000202435002010B51E48EF
:103210000078002831D100BF1C480068002807D082
:1032200000BF1BA3E52228A131A0FFF7D9F900BFF9
:1032300000BF0CF063FB154908600846006810B930
:103240004FF0FF3010BD11480068407A40F0200078
:103250000E490968487244222F490C4800680CF056
:103260003BF843222C49094800680CF0C7F80022BB
:103270002A49064800680CF07BFB03480078401C94
:10328000014908700020DDE73400002030000020F4
:103290002E2E5C4D6964646C6577617265735C5455
:1032A000686972645F50617274795C4C7749505CF4
:1032B0007372635C636F72655C697076345C6468BA
:1032C00063702E6300000000646863705F696E6362
:1032D0005F7063625F726566636F756E7428293A0A
:1032E000206D656D6F7279206C65616B0000000068
:1032F000417373657274696F6E2022257322206694
:1033000061696C6564206174206C696E6520256458
:1033100020696E2025730A0050FF0008993E0008BE
:1033200070B505466C6A04B970BD6079042809D08F
:1033300003DC80B103280FD107E0052803D00A2859
:103340000AD101E000BF00BF00BF0020A0712846E5
:1033500000F016FD14E013E000BF60790C2808DDD2
:1033600000BF09A340F26D3215A11AA0FFF738F98A
:1033700000BF00BF0020A0712846FFF73FFE00BF3E
:1033800000BF00BFD0E700002E2E5C4D6964646C66
:103390006577617265735C54686972645F506172CD
:1033A00074795C4C7749505C7372635C636F7265CF
:1033B0005C697076345C646863702E6300000000A2
:1033C000696E76616C696420646863702D3E737405
:1033D00061746500417373657274696F6E20222594
:1033E0007322206661696C6564206174206C696E6B
:1033F0006520256420696E2025730A002DE9F041BF
:1034000004460D4617461E4600BFA01C3044442803
:1034100008D900BF09A340F29A52164916A0FFF737
:10342000DFF800BF00BF2046611C8CB22F5420463D
:10343000611C8CB22E542046BDE8F0812E2E5C4DCE
:103440006964646C6577617265735C546869726401
:103450005F50617274795C4C7749505C7372635C45
:10346000636F72655C697076345C646863702E6348
:103470000000000070000108417373657274696F89
:103480006E2022257322206661696C656420617458
:10349000206C696E6520256420696E2025730A0002
:1034A00070B504460D46164600BF442C08D300BF35
:1034B00007A340F2A65214A121A0FFF791F800BF84
:1034C00000BF2046611C8CB22E54204670BD000007
:1034D0002E2E5C4D6964646C6577617265735C5413
:1034E000686972645F50617274795C4C7749505CB2
:1034F0007372635C636F72655C697076345C646878
:1035000063702E6300000000646863705F6F707406
:10351000696F6E5F627974653A206F7074696F6E5F
:10352000735F6F75745F6C656E203C204448435038
:103530005F4F5054494F4E535F4C454E00000000C2
:10354000417373657274696F6E2022257322206641
:1035500061696C6564206174206C696E6520256406
:1035600020696E2025730A0070B504460D46164684
:1035700000BF201D442808D900BF10A340F2B75255
:103580001CA12BA0FFF72CF800BF00BF320E204675
:10359000611C8CB22A54C6F307422046611C8CB2CF
:1035A0002A54C6F307222046611C8CB22A542046B6
:1035B000611C8CB22E54204670BD00002E2E5C4D36
:1035C0006964646C6577617265735C546869726480
:1035D0005F50617274795C4C7749505C7372635CC4
:1035E000636F72655C697076345C646863702E63C7
:1035F00000000000646863705F6F7074696F6E5FD5
:103600006C6F6E673A206F7074696F6E735F6F7561
:10361000745F6C656E202B2034203C3D2044484371
:10362000505F4F5054494F4E535F4C454E00000081
:10363000417373657274696F6E2022257322206650
:1036400061696C6564206174206C696E6520256415
:1036500020696E2025730A0070B504460D46164693
:1036600000BFA01C442808D900BF0AA340F2AE52F4
:1036700016A125A0FEF7B4FF00BF00BF320A204606
:10368000611C8CB22A542046611C8CB22E542046F8
:1036900070BD00002E2E5C4D6964646C65776172AC
:1036A00065735C54686972645F50617274795C4CD4
:1036B0007749505C7372635C636F72655C697076A6
:1036C000345C646863702E6300000000646863709B
:1036D0005F6F7074696F6E5F73686F72743A206F9A
:1036E0007074696F6E735F6F75745F6C656E202B9D
:1036F0002032203C3D20444843505F4F5054494FB6
:103700004E535F4C454E0000417373657274696F90
:103710006E2022257322206661696C6564206174C5
:10372000206C696E6520256420696E2025730A006F
:1037300070B504460D461646FF222046611C8CB229
:103740002A5404E000222046611C8CB22A54442CE6
:1037500002D304F0030008B1442CF3D304F1F000C9
:1037600081B2304605F098FE70BD00002DE9F04FA3
:103770008BB08146002007900690F7480021016039
:103780004160B9F80A002C2803D2881E0BB0BDE8AE
:10379000F08FD9F8040005904FF0F00AB9F808004E
:1037A000089000BF4C460AE06089AAEB00001FFAAF
:1037B00080FA61890898401A80B20890246814B190
:1037C00060895045F0DD14B96FF00100DEE7554621
:1037D0000898099060680A90A0E10A98405D0490FA
:1037E00000274FF0FF38A81C1FFA80FBAB4501DA19
:1037F000B81ECBE76189681C814203DD691C0A9809
:10380000465C07E0206818B120684068007800E056
:10381000002006463746049834284FD007DC78B19C
:10382000012811D0032822D033287AD133E035285B
:1038300068D036287CD03A2875D03B28F5D19DE059
:10384000002006460746B0E000BF042E0BD000BFA4
:10385000C2A340F22E62CFA1D1A0FEF7C1FE00BFED
:103860006FF0050092E700BF4FF006089DE00427C7
:1038700000BFBE420BDA00BFB8A340F23362D2A150
:10388000C7A0FEF7ADFE00BF6FF005007EE700BFEA
:103890004FF0070889E000BF042E0BD000BFAFA394
:1038A00040F24162BBA1BEA0FEF79AFE00BF6FF0DE
:1038B00005006BE700BF4FF0030876E000BF012E64
:1038C0000BD000BFA5A340F24F62C4A1B4A0FEF785
:1038D00087FE00BF6FF0050058E700BF00BFBAF1D8
:1038E000F00F0BD000BF9DA340F25162BEA1ACA06F
:1038F000FEF776FE00BF6FF0050047E700BF4FF010
:10390000000852E000BF012E0ED000BF93A340F28A
:103910005562B2A1A2A0FEF763FE00BF6FF00500E2
:1039200034E73EE004E016E000BF4FF001083CE061
:1039300000BF042E0BD000BF88A340F2596295A1AE
:1039400097A0FEF74DFE00BF6FF005001EE700BF19
:103950004FF0020829E000BF042E0BD000BF7FA368
:1039600040F25D628BA18EA0FEF73AFE00BF6FF0C1
:1039700005000BE700BF4FF0040816E000BF042E5F
:103980000BD000BF75A340F2616282A184A0FEF754
:1039900027FE00BF6FF00500F8E600BF4FF00508F6
:1039A00003E0002700BF00BF00BF00BF049810B9AC
:1039B000681C85B28DE0A819801CB0F5803F02DB41
:1039C0006FF00100E2E6A819801C85B2002FF1DD3E
:1039D0000020039000BF00BFB8F1000F02DBB8F178
:1039E000080F08DB00BF5DA34FF4CF6284A16CA079
:1039F000FEF7F6FD00BF00BF574810F8080000288A
:103A000066D1042F01DA384600E0042002905B46BC
:103A100003A92046029A05F093FB014602988142D1
:103A200002D06FF00100B1E6042F2FDD00BFF917BF
:103A300007EB91718910A7EB810159B100BF47A332
:103A400040F2816273A156A0FEF7CAFD00BF6FF07D
:103A500005009BE600BF01203F4901F808000398DC
:103A600003F002FD714941F82800381FC7B20BF17D
:103A7000040080B201900198584502DA6FF001000D
:103A800084E6DDF804B008F10108A4E7042F04D1AE
:103A9000039803F0E9FC039012E000BF012F0BD064
:103AA00000BF2EA34FF4D26261A13DA0FEF798FDA6
:103AB00000BF6FF0050069E600BF9DF80C000390A1
:103AC0000120254901F808005849039841F82800C9
:103AD00000BF6089A84220DC6089281A85B261890C
:103AE0000998401A80B209900998854212DA246830
:103AF00000BF5CB900BF19A340F29D6251A128A08C
:103B0000FEF76EFD00BF6FF005003FE600BF606886
:103B10000A9002E06FF0010038E600BF3CB109985E
:103B2000854204DA0A98405DFF287FF456AE0A48C1
:103B3000007870B13D4908680021074A11700128DA
:103B400002D1012107918CE0022803D101210691C5
:103B500087E087E080E00000240000202E2E5C4DEE
:103B60006964646C6577617265735C5468697264DA
:103B70005F50617274795C4C7749505C7372635C1E
:103B8000636F72655C697076345C646863702E6321
:103B9000000000006C656E203D3D203400000000F8
:103BA000417373657274696F6E20222573222066DB
:103BB00061696C6564206174206C696E65202564A0
:103BC00020696E2025730A006C656E203E3D2064DE
:103BD00065636F64655F6C656E0000006C656E20E8
:103BE0003D3D2031000000006F7665726C6F6164AE
:103BF00020696E2066696C652F736E616D650000CB
:103C0000636865636B206465636F64655F6964788E
:103C1000000000006465636F64655F6C656E20255D
:103C2000252034203D3D20300000000024350020B8
:103C3000696E76616C6964206465636F64655F6C4E
:103C4000656E00006E65787420706275662077611D
:103C500073206E756C6C0000032802D1012106915F
:103C6000079100BF079830B1002007904FF06C0A11
:103C7000EC20089096E5069830B1002006904FF0B1
:103C80002C0A6C2008908DE500207FE52DE9FC478B
:103C900007467C6A0421204600F084FB01AB032226
:103CA00021463846FEF7DCFF0546002D42D06E68FF
:103CB0000223392206F1F001BDF80400FFF79EFB54
:103CC00001903A8D06F1F001BDF80400FFF7C4FC45
:103CD00001900323372206F1F001BDF80400FFF73D
:103CE0008DFB01904FF000080DE0224810F80820ED
:103CF00006F1F001BDF80400FFF7D2FB019008F1D6
:103D0000010000F0FF08B8F1030FEED32A4606F1D8
:103D1000F001BDF80400FFF70BFD4323164A2946C6
:103D20001648009700680BF0DBFE8146284605F038
:103D3000A7FA01E04FF0FF39A079FF2802DAA07955
:103D4000401CA071A0790A2805DAA0794FF47A7195
:103D500010FB01F001E042F210701FFA80FA0AF243
:103D6000F3104FF4FA7190FBF1F020814846BDE862
:103D7000FC8700002C00002054FF000830000020C9
:103D80002DE9FC5F8046D8F824400321204600F04E
:103D900009FB01AB032221464046FEF761FF0646C0
:103DA000002E54D075680223392205F1F001BDF8C8
:103DB0000400FFF723FB01904FF4107205F1F001AE
:103DC000BDF80400FFF748FC01900423322205F1FE
:103DD000F001BDF80400FFF711FB0190E06903F06A
:103DE00043FB83465A4605F1F001BDF80400FFF796
:103DF000BBFB01900323372205F1F001BDF804005D
:103E0000FFF7FCFA019000270AE02048C25D05F1A7
:103E1000F001BDF80400FFF743FB0190781CC7B226
:103E2000032FF2D3324605F1F001BDF80400FFF78D
:103E30007FFC4323164A31461648CDF800800068BF
:103E40000BF04EFE8146304605F01AFA01E04FF0C5
:103E5000FF39A079FF2802DAA079401CA071A0796F
:103E60000A2805DAA0794FF47A7110FB01F001E01D
:103E700042F210701FFA80FA0AF2F3104FF4FA714E
:103E800090FBF1F020814846BDE8FC9F2C0000200B
:103E900054FF0008300000202DE9F05F1646DDF8E1
:103EA00028B0444847687C6AD6F804900CB1207961
:103EB00000B97AE000BF00BF70892C2800DA74E0F6
:103EC00099F80000022800D06FE000250AE007F111
:103ED0002A00415D09F11C00405D814200D064E090
:103EE000681CC5B297F83000A84201DD062DEED35C
:103EF000D9F8040003F0B8FA2168884200D054E0F1
:103F000021463046FFF732FC00B14EE02A484078A7
:103F100000B94AE0D6F804A0284890F80480B8F127
:103F2000050F24D16079012810D151463846FFF79A
:103F300001F997F8310000F0080018B13846FEF793
:103F40003BFE31E03846FEF759FD2DE0607903284D
:103F500005D06079042802D06079052824D1514623
:103F60003846FFF7E7F83846FEF748FD1CE0B8F1A1
:103F7000060F0FD16079032808D06079012805D099
:103F80006079042802D06079052803D13846FFF70C
:103F900011F909E0B8F1020F06D16079062803D1C2
:103FA00051463846FFF71AF900BF304605F068F968
:103FB000BDE8F09F44360020240000202435002076
:103FC0002DE9FE430646746A0CB9BDE8FE836079AC
:103FD00000B9FAE7A06902900020A061E0612062C8
:103FE00060622063E062A062A08260822082E08141
:103FF000304600F091FA88B301AB072221463046E3
:10400000FEF72EFE054645B36F680423362207F1FE
:10401000F001BDF80400FFF7F1F90190029803F0F8
:1040200023FA8046424607F1F001BDF80400FFF78D
:104030009BFA01902A4607F1F001BDF80400FFF752
:1040400077FB432302AA29460D48009600680BF02F
:1040500047FD284605F014F900BF00BF094B1A467A
:104060001146304604F01CFA0021204600F09AF96F
:10407000207918B1FEF704FF0020207100BFA4E7EB
:104080003000002050FF00082DE9FC4707467C6AFD
:104090000521204600F086F901AB0322214638466F
:1040A000FEF7DEFD0546002D43D06E68022339225F
:1040B00006F1F001BDF80400FFF7A0F901903A8D78
:1040C00006F1F001BDF80400FFF7C6FA01900323E2
:1040D000372206F1F001BDF80400FFF78FF90190D7
:1040E0004FF000080DE0224810F8082006F1F0011A
:1040F000BDF80400FFF7D4F9019008F1010000F0C9
:10410000FF08B8F1030FEED32A4606F1F001BDF81F
:104110000400FFF70DFB432304F11802294615485C
:10412000009700680BF0DCFC8146284605F0A8F8F3
:1041300001E04FF0FF39A079FF2802DAA079401C96
:10414000A071A0790A2805DAA0794FF4FA6110FB72
:1041500001F001E044F620601FFA80FA0AF2F31041
:104160004FF4FA7190FBF1F020814846BDE8FC87DE
:104170002C000020300000202DE9FE4F074600BF34
:10418000002F0CD100BF5DA340F2771269A170A08F
:10419000FEF726FA00BF6FF00F00BDE8FE8F00BFEC
:1041A0007C6A00BF002C0AD100BF54A340F27912F0
:1041B00071A167A0FEF714FA00BFA01FEDE700BFD2
:1041C0000121204600F0EEF802AB032221463846DA
:1041D000FEF746FD0646002E6ED075680223392292
:1041E00005F1F001BDF80800FFF708F902903A8DDB
:1041F00005F1F001BDF80800FFF72EFA0290042344
:10420000322205F1F001BDF80800FFF7F7F802903F
:10421000E06903F029F983465A4605F1F001BDF83B
:104220000800FFF7A1F902900423362205F1F001FE
:10423000BDF80800FFF7E2F80290A06903F014F956
:1042400083465A4605F1F001BDF80800FFF78CF9E6
:1042500002900323372205F1F001BDF80800FFF7B3
:10426000CDF802904FF000080DE04A4810F8082001
:1042700005F1F001BDF80800FFF712F9029008F10E
:10428000010000F0FF08B8F1030FEED3324605F14C
:10429000F001BDF80800FFF74BFA3F4843233F4ABF
:1042A0003146CDE900703E4800680BF0E5FC8146E0
:1042B000304604F0E5FF01E04FF0FF39A079FF2818
:1042C00002DAA079401CA071A079062803DAA1794E
:1042D0000120884000E03C2000EB4001C1EBC01011
:1042E0004FF6FF7101EAC00A0AF2F3104FF4FA71B7
:1042F00090FBF1F0208148464FE700002E2E5C4DE8
:104300006964646C6577617265735C546869726432
:104310005F50617274795C4C7749505C7372635C76
:10432000636F72655C697076345C646863702E6379
:1043300000000000646863705F73656C6563743AC5
:10434000206E6574696620213D204E554C4C00005E
:10435000417373657274696F6E2022257322206623
:1043600061696C6564206174206C696E65202564E8
:1043700020696E2025730A00646863705F73656C42
:104380006563743A206468637020213D204E554C6B
:104390004C0000002C00002050FF000854FF0008D3
:1043A0003000002042798A4203D04171002282719C
:1043B0000281704770B5044600BF002C0BD100BFCE
:1043C0002DA340F2E7223AA13DA0FEF709F900BF74
:1043D0006FF00F0070BD00BF00BF94F8310000F017
:1043E000010000280BD100BF23A34FF43A723EA175
:1043F00033A0FEF7F5F800BF6FF00F00EAE700BF4B
:10440000656A208DB0F5107F02DA4FF0FF30E1E7EA
:104410004DB9342003F01AFA054615B94FF0FF30B4
:10442000D8E7656203E0287908B1FEF729FD342159
:104430002846FBF730FFFEF7E9FE10B14FF0FF30E2
:10444000C8E70120287194F83100C0F3800028B932
:1044500002212846FFF7A6FF0020BBE72046FEF713
:10446000CDFD06462EB12046FFF7AAFD4FF0FF30E6
:10447000B0E73046AEE700002E2E5C4D6964646CF8
:104480006577617265735C54686972645F506172CC
:1044900074795C4C7749505C7372635C636F7265CE
:1044A0005C697076345C646863702E6300000000A1
:1044B0006E6574696620213D204E554C4C0000000D
:1044C000417373657274696F6E20222573222066B2
:1044D00061696C6564206174206C696E6520256477
:1044E00020696E2025730A006E6574696620697301
:1044F000206E6F742075702C206F6C64207374793B
:104500006C6520706F72743F0000000010B50446A7
:104510002046FFF755FD10BD014679B1486A68B1E4
:104520004A6A50790A2805D05079052802D0507976
:10453000042801D1012070470020FCE70020FAE7A1
:1045400070B505466C6A6079012805D060790A2843
:1045500002D06079052813D12846FFF795FDA1897F
:10456000628A881A00EBD0710122B2EB610F07DC7E
:10457000A189628A881A00EBD071C1F34F01E181F1
:1045800070BD70B505466C6A6079012808D0607905
:104590000A2805D06079052802D06079042813D153
:1045A0002846FFF773FBA18A628A881A00EBD07154
:1045B0000122B2EB610F07DCA18A628A881A00EB44
:1045C000D071C1F34F01218270BD70B505466C6A90
:1045D00060790C2802D06079062803D12846FEF7BE
:1045E0000DFD2BE0607901280DD1A079052803DCB1
:1045F0002846FFF7C1FD21E02846FFF7E1FC2846E9
:10460000FFF7D8FE1AE0607908280AD1A0790128BE
:1046100003DC2846FEF7D0FA10E02846FEF7EEF954
:104620000CE06079032809D1A079022803DA284632
:10463000FFF7A6FB02E02846FEF7E0FC70BD000095
:1046400070B504460D4600BF05F00300002808D0F1
:1046500000BF08A34FF4B67212A11AA0FDF7C0FF65
:1046600000BF00BF2E46A06800683060A0680660EA
:1046700070BD00002E2E5C4D6964646C65776172BC
:1046800065735C54686972645F50617274795C4CE4
:104690007749505C7372635C636F72655C6D656DC6
:1046A000702E63006D656D705F667265653A206D92
:1046B000656D2070726F7065726C7920616C6967CE
:1046C0006E656400417373657274696F6E20222594
:1046D0007322206661696C6564206174206C696E68
:1046E0006520256420696E2025730A0070B5054693
:1046F000A8680468002C13D02068A968086000BF6F
:1047000004F00300002808D000BF06A34FF48C7209
:1047100010A119A0FDF764FF00BF00BF204670BDC7
:104720000020FCE72E2E5C4D6964646C6577617235
:1047300065735C54686972645F50617274795C4C33
:104740007749505C7372635C636F72655C6D656D15
:10475000702E63006D656D705F6D616C6C6F633A98
:10476000206D656D702070726F7065726C7920615C
:104770006C69676E65640000417373657274696F7C
:104780006E2022257322206661696C656420617445
:10479000206C696E6520256420696E2025730A00EF
:1047A00070B50546002411E004EB4400094901EB13
:1047B000C000067D4EB104EB440001EBC0008068F0
:1047C000A84202D1204600F087F9641C0A2CEBDBDA
:1047D00070BD0000443500202DE9FF5F0646894684
:1047E00017464FF00A0AD346D04600240A20039009
:1047F000002002900190009000BF73E004EB4400A1
:10480000764901EBC000057DB8F10A0F02D10DB960
:10481000A04665E0002D63D000BF012D0AD0022D17
:1048200008DA00BF6EA340F223127BA18AA0FDF735
:10483000D7FE00BF00BFAEB104EB4401674A02EBF4
:10484000C1013068496888420CD13FB104EB440093
:10485000114601EBC0008068B84203D1204604B085
:10486000BDE8F09F012D28D104EB44005B4951F8CD
:10487000300080B104EB440001EBC000418A029893
:1048800081422DDB039404EB4400544901EBC0004A
:10489000408A029024E004EB4400504901EBC00040
:1048A000418A019881421BDBA24604EB44004B493C
:1048B00001EBC000408A019012E0022D10DB04EBF6
:1048C0004400464901EBC000418A0098814207DB61
:1048D000A34604EB4400414901EBC000408A00902C
:1048E000601C04B20A2C89DB09F0020028B9B8F177
:1048F0000A0F05D109F0010010B94FF0FF30AEE703
:10490000B8F10A0F01DA444631E0BBF10A0F11DABF
:104910005C4600BF04EB4400304951F8300040B120
:1049200000BF2FA340F26D1255A14BA0FDF758FE1A
:1049300000BF0CE0BAF10A0F01DA544607E0039811
:104940000A2801DA039C02E04FF0FF3087E700BF3E
:104950000A2C08DB00BF22A340F27F124EA13EA02A
:10496000FDF73EFE00BF00BF204600F0B5F800BFD7
:104970000A2C08DB00BF1AA340F2831246A136A01E
:10498000FDF72EFE00BF00BF00BF04EB440013493B
:1049900001EBC000007D40B100BF11A34FF4C27213
:1049A00042A12DA0FDF71CFE00BF00BF36B104EBF5
:1049B00044010A4A02EBC10130684860002004EB60
:1049C0004401064A02EBC101488204EB440011464F
:1049D00001EBC0008760204641E70000443500201D
:1049E0002E2E5C4D6964646C6577617265735C54EE
:1049F000686972645F50617274795C4C7749505C8D
:104A00007372635C636F72655C697076345C657445
:104A1000686172702E6300007374617465203D3D9F
:104A2000204554484152505F53544154455F5045CE
:104A30004E44494E47207C7C207374617465203E4F
:104A40003D204554484152505F53544154455F53B3
:104A50005441424C45000000417373657274696FA4
:104A60006E2022257322206661696C656420617462
:104A7000206C696E6520256420696E2025730A000C
:104A80006172705F7461626C655B695D2E71203D5F
:104A90003D204E554C4C000069203C204152505F57
:104AA0005441424C455F53495A4500006172705F62
:104AB0007461626C655B695D2E7374617465203D21
:104AC0003D204554484152505F53544154455F4541
:104AD0004D5054590000000010B5044604EB44004A
:104AE0000C4951F8300060B104EB4401094A52F816
:104AF000310004F0C5FB002004EB4401054A42F8F4
:104B00003100002004EB4401024A02EBC1010875A8
:104B100010BD000044350020F0B587B007460D46B3
:104B200000BF002D0AD100BF30A340F28A223DA170
:104B300040A0FDF755FD00BF07B0F0BD00BF7C6889
:104B40002088B0F5807F08D12079062805D16079CA
:104B5000042802D16088082803D0384604F090FB6E
:104B6000EAE7D4F80E000690A0690590686808B9D5
:104B7000002607E005986968884201D1012000E01D
:104B8000002006460EB1012000E00220034604F199
:104B9000080206A9284600F0CFFCE088B0F5807F27
:104BA00003D0B0F5007F19D113E086B1022206AB25
:104BB00004F10800291DCDE90232CDE9001005F10C
:104BC0002A0302462631284600F060FB00E000BFC1
:104BD00005E006A92846FDF7B9FE00E000BF00BFCA
:104BE000384604F04DFB00BFA6E700002E2E5C4DBA
:104BF0006964646C6577617265735C54686972643A
:104C00005F50617274795C4C7749505C7372635C7D
:104C1000636F72655C697076345C6574686172702C
:104C20002E6300006E6574696620213D204E554C50
:104C30004C000000417373657274696F6E20222509
:104C40007322206661696C6564206174206C696EF2
:104C50006520256420696E2025730A002DE9FE4336
:104C600004460F461546A94600BF002C08D100BFD8
:104C70005DA340F21E326AA16DA0FDF7B1FC00BF3A
:104C800000BF00BF47B900BF57A340F21F3272A157
:104C900067A0FDF7A5FC00BF00BF00BF002D08D135
:104CA00000BF51A34FF448726EA161A0FDF798FCBC
:104CB00000BF00BF2146286801F00AF910B1DFF8F3
:104CC000B48186E0287800F0F000E02816D10120B9
:104CD0008DF8040000208DF805005E208DF8060098
:104CE000687800F07F008DF80700A8788DF808003C
:104CF000E8788DF809000DF1040869E02868A168DA
:104D00000840D4E90112114088420ED0288880B2B0
:104D10004FF6A961884208D0E06810B104F10C098F
:104D200003E06FF00300BDE8FE835348007800EB1A
:104D30004000524901EBC000007D02281BDB4E48B9
:104D4000007800EB400001EBC0008068A04212D167
:104D50004949097801EB4101484A02EBC101D9F800
:104D600000004968884206D1434802783946204607
:104D700000F086F8D7E7002622E006EB46003F4920
:104D800001EBC000007D022818DB06EB460001EBBA
:104D9000C0008068A04211D106EB4601374A02EB01
:104DA000C101D9F800004968884207D1324806702D
:104DB00032463946204600F063F8B4E7701CC6B2AC
:104DC0000A2EDADB3A464946204600F00DF9AAE7FA
:104DD00000BF4FF40060434604F12A0239460090B8
:104DE000204600F07DFD9EE72E2E5C4D6964646CCC
:104DF0006577617265735C54686972645F50617253
:104E000074795C4C7749505C7372635C636F726554
:104E10005C697076345C6574686172702E63000042
:104E20006E6574696620213D204E554C4C00000093
:104E3000417373657274696F6E2022257322206638
:104E400061696C6564206174206C696E65202564FD
:104E500020696E2025730A007120213D204E554C9B
:104E60004C00000069706164647220213D204E5541
:104E70004C4C000058FF00083C0000204435002046
:104E8000F8B505460E46144600BF04EB4400314910
:104E900001EBC000007D022808DA00BF2EA340F21B
:104EA000EE223BA146A0FDF79BFB00BF00BF04EB39
:104EB0004400284901EBC000007D022839D104EBF1
:104EC000440001EBC000408AB0F58E7F11DD04EB99
:104ED00044000A4602EBC000011D284600F09CFA7F
:104EE00038BB032004EB44011A4A02EBC1010875E8
:104EF0001FE004EB4400174901EBC000408AB0F505
:104F0000877F16DB04EB44000B4603EBC00000F187
:104F10000C0204EB440003EBC000011D284600F026
:104F200087FA30B9032004EB44010A4A02EBC101BD
:104F300008754FF40060009004EB4400054901EB54
:104F4000C00000F10C0305F12A023146284600F0AA
:104F5000C7FCF8BD443500202E2E5C4D6964646C9E
:104F60006577617265735C54686972645F506172E1
:104F700074795C4C7749505C7372635C636F7265E3
:104F80005C697076345C6574686172702E630000D1
:104F90006172705F7461626C655B6172705F69649D
:104FA000785D2E7374617465203E3D204554484100
:104FB00052505F53544154455F535441424C450055
:104FC000417373657274696F6E20222573222066A7
:104FD00061696C6564206174206C696E652025646C
:104FE00020696E2025730A002DE9FE4F81460F4689
:104FF000164609F12A0A4FF0FF3002900020019076
:105000004946386800F064FF38B9387800F0F0009D
:10501000E02802D00FB1386818B96FF00F00BDE872
:10502000FE8F4A4601213846FFF7D6FB8046B8F18D
:10503000000F02DA4FFA88F0F1E700BFB8F17F0FF6
:1050400008D300BF5FA340F2C1326CA16FA0FDF78F
:10505000C7FA00BF00BF08F0FF0404EB4400754925
:1050600001EBC000007D70B90120019004EB440108
:10507000704A02EBC101087504EB4400114601EBD4
:10508000C000C0F8089000BF04EB4400694901EB80
:10509000C000007D01280FD004EB440001EBC000EC
:1050A000007D022808DA00BF46A340F2CD3262A19B
:1050B00056A0FDF795FA00BF00BF019800B93EB9B0
:1050C0003946484600F0A8F902900EB90298A6E7C2
:1050D00000BF46B900BF3BA340F2E13260A14BA044
:1050E000FDF77EFA00BF00BF04EB4400514901EB1D
:1050F000C000007D022811DB5C4804704FF40060A2
:10510000009004EB440001EBC00000F10C03524698
:105110003146484600F0E4FB029050E004EB4400C6
:10512000444901EBC000007D012848D14FF0000B3D
:10513000354618E000BF6889298988420AD1286865
:1051400040B100BF1FA340F2F13249A12FA0FDF7EB
:1051500047FA00BF00BF287B00F0400010B14FF0BD
:10516000010B02E02D68002DE4D100BFBBF1000F60
:1051700007D032464FF420710E2003F075FE05462D
:1051800003E03546284604F03BFAA5B104EB4400A1
:10519000284951F8300030B104EB4401254A52F857
:1051A000310004F06DF804EB4400224941F830501E
:1051B0000020029002E04FF0FF30029000BF029802
:1051C0002DE700002E2E5C4D6964646C657761727A
:1051D00065735C54686972645F50617274795C4C89
:1051E0007749505C7372635C636F72655C6970765B
:1051F000345C6574686172702E6300007479706548
:10520000206F766572666C6F77000000417373657E
:105210007274696F6E2022257322206661696C6545
:1052200064206174206C696E6520256420696E209D
:1052300025730A00443500206172705F7461626CEE
:10524000655B695D2E7374617465203D3D2050453A
:105250004E44494E47206F7220535441424C450002
:105260007120213D204E554C4C0000003C00002098
:105270006E6F207061636B65742071756575657301
:1052800020616C6C6F776564210000002DE9FC5F84
:1052900006460F4690469946DDE90CAB002001908A
:1052A00000BF002E08D100BF31A340F257423EA1FB
:1052B00041A0FDF795F900BF00BF4FF420721C21FB
:1052C0000E2003F03FFB05461DB94FF0FF30BDE84F
:1052D000FC9F00BF68891C2808DA00BF24A340F2A5
:1052E00062423FA134A0FDF77BF900BF00BF6C68AC
:1052F0000F9802F0C6F8E08000BF96F8300006284C
:1053000008D000BF1AA340F2694242492AA0FDF723
:1053100067F900BF00BFD9F80000A060B9F8040029
:10532000A081DBF80000C4F81200BBF80400E082A2
:10533000DAF80000C4F80E000E980068A0614FF47F
:105340008070208008206080062020710420607119
:1053500040F6060043463A4629460090304600F0A3
:10536000BFFA284603F08CFF00250198AFE7000044
:105370002E2E5C4D6964646C6577617265735C5454
:10538000686972645F50617274795C4C7749505CF3
:105390007372635C636F72655C697076345C6574AC
:1053A000686172702E6300006E6574696620213D2D
:1053B000204E554C4C000000417373657274696F48
:1053C0006E2022257322206661696C6564206174F9
:1053D000206C696E6520256420696E2025730A00A3
:1053E000636865636B2074686174206669727374A6
:1053F00020706275662063616E20686F6C64207334
:105400007472756374206574686172705F68647229
:1054100000000000B400010870B504460D46034AC0
:105420002946204600F004F870BD000058FF00082F
:105430007FB504460D4616460121074A201D04F19A
:105440002A038DE825000391324619462046FFF7CE
:105450001DFF04B070BD00005EFF000870B50024A1
:1054600064E004EB4400334901EBC000057D002DEE
:105470005BD004EB440001EBC000408A401C04EB0D
:1054800044012C4A02EBC101488204EB440011465E
:1054900001EBC000408AB0F5967F0DDA04EB4400C2
:1054A00001EBC000007D01280AD104EB440001EBB0
:1054B000C000408A052803DB2046FFF70DFB34E0DF
:1054C00004EB44001B4901EBC000007D032807D119
:1054D000042004EB4401174A02EBC101087524E0E3
:1054E00004EB4400134901EBC000007D042807D100
:1054F000022004EB44010F4A02EBC101087514E0DD
:1055000004EB44000B4901EBC000007D01280CD1E5
:1055100004EB44020B4603EBC202111D04EB4402F0
:1055200003EBC2029068FFF777FF641C0A2C98DB3C
:1055300070BD0000443500202DE9F84305460E46B5
:105540001746984600BF95F83000062808D000BFDF
:105550002EA340F2A9123BA143A0FDF741F800BFE2
:1055600000BF5EB1306848B12946306800F0B0FC39
:1055700020B9307800F0F000E02803D16FF00F0080
:10558000BDE8F8832A4641463046FFF725F9044630
:10559000002C01DA60B2F3E7022004EB44013C4A3C
:1055A00002EBC101087504EB4400114601EBC00099
:1055B000856004EB440001EBC0003968C160B98824
:1055C0000182002004EB440102EBC101488204EB9C
:1055D0004400114651F83000B0B104EB440051F8DA
:1055E0003090002004EB440142F831004FF4006099
:1055F0003B4605F12A0249460090284600F070F922
:10560000484603F03DFE00BF0020B9E72E2E5C4D5A
:105610006964646C6577617265735C54686972640F
:105620005F50617274795C4C7749505C7372635C53
:10563000636F72655C697076345C65746861727002
:105640002E6300006E657469662D3E687761646440
:10565000725F6C656E203D3D204554485F48574160
:105660004444525F4C454E00417373657274696FD8
:105670006E2022257322206661696C656420617446
:10568000206C696E6520256420696E2025730A00F0
:10569000443500202DE9F04104460E464FF00E0837
:1056A00060890E2800DC4FE0E07B18B996F83400E2
:1056B000401CE0736568AF89287800F00100B0B144
:1056C0002878012809D1687888B9A8785E280ED191
:1056D000607B40F01000607309E006221D492846F7
:1056E000FAF7E4FD18B9607B40F008006073082FFA
:1056F00003D0B7F5C16F22D110E096F8310000F069
:10570000080000B920E04146204603F0C7FF00B181
:105710001AE03146204600F069FD11E096F83100AC
:1057200000F0080000B90FE04146204603F0B6FF44
:1057300000B109E031462046FFF7EEF900E003E052
:1057400000BF0020BDE8F081204603F099FD002055
:10575000F8E7000058FF00082DE9F0419AB0044630
:10576000642101A8FAF797FD4FF0000800260027F2
:10577000FBF750FA054694F83100C0F3800078B189
:10578000012D0DD82CA0FCF72BFF204602F0BEFE09
:10579000204602F025FF2E492E4802F01DFF48E06A
:1057A00094F83100C0F38000002842D1012D40D987
:1057B000022D06D0032D0AD0042D0ED0052D17D1B1
:1057C00011E04FF40067FE004FF0010811E00027E0
:1057D0004FF480464FF001080BE04FF400670026BD
:1057E0004FF0010805E0002700264FF0010800E017
:1057F00000BF00BFB8F1000F1BD001A91648FBF78E
:105800008DFA079706963246394614A0FCF7E8FE53
:1058100001A91148FBF716FD0F48FBF725FD2046AF
:1058200002F0B2FF204602F041FF0949094802F0A8
:10583000D3FE1AB0BDE8F081B6CFBFAACDF8CFDF56
:10584000A3ACD0E8D6D8D0C2C1ACBDD30A0000000A
:1058500071580008E8000020E43300206475706C83
:1058600065783D25782073706565643D25780A006C
:1058700010B5044694F83100C0F3800048B108A088
:10588000FCF7AEFE01200A4908700A48FEF792FDB7
:1058900005E005200649087007A0FCF7A1FE10BD31
:1058A000B3C9B9A6C1ACBDD3CDF8BFA80A000000EA
:1058B0000C000020E8000020546865206E657477B5
:1058C0006F726B206361626C65206973206E6F7408
:1058D00020636F6E6E6563746564200A00000000CB
:1058E0002DE9F04705460E4617469846DDF820900C
:1058F000484601F0C6FD82460E21304602F0A4FF64
:1059000000B122E07468A4F80CA0D8F80000206070
:10591000B8F80400A0803868C4F80600B888608130
:1059200000BF95F83000062808D000BF08A34FF448
:10593000997215A121A0FCF753FE00BF00BF3146AC
:105940002846AA699047BDE8F0876FF00100FAE7A2
:105950002E2E5C4D6964646C6577617265735C546E
:10596000686972645F50617274795C4C7749505C0D
:105970007372635C6E657469665C65746865726E8B
:1059800065742E63000000006E657469662D3E68C4
:1059900077616464725F6C656E206D7573742062EC
:1059A00065203620666F722065746865726E657456
:1059B0005F6F75747075742100000000417373652A
:1059C0007274696F6E2022257322206661696C658E
:1059D00064206174206C696E6520256420696E20E6
:1059E00025730A0010B5044600BF44B900BF0CA3DC
:1059F0004FF4B2720FA113A0FCF7F2FD00BF00BF7D
:105A0000732084F8320074213320015517486061F7
:105A10001748A061204601F009FC002010BD0000DD
:105A20002E2E5C5372635C65746865726E65746972
:105A3000662E63006E6574696620213D204E554CCC
:105A40004C000000417373657274696F6E202225EB
:105A50007322206661696C6564206174206C696ED4
:105A60006520256420696E2025730A005D4C0008BE
:105A70006973000870B50446002500BF204601F098
:105A800061FC05463DB1214628462269904710B188
:105A9000284603F0F5FB002DF0D170BD13B50C4680
:105AA0004FF6FF73012269460248FCF7F1FA0098AD
:105AB0001CBD0000E034002070B505460C462246AF
:105AC0000321284600F042F970BD00002DE9FF5F78
:105AD00005468A4669488068039003980078000765
