:020000040800F2
:10000000D0460324A9030008319100089F55000839
:1000100069900008D90F00081DA200080000000028
:1000200000000000000000000000000075970008BC
:1000300065100008000000001392000821980008D5
:10004000C3030008C3030008C30300087D9500082C
:10005000C3030008C3030008C3030008C303000868
:10006000C3030008C3030008C3030008C303000858
:10007000C3030008C3030008C3030008C303000848
:10008000C3030008C3030008C3030008C303000838
:10009000C3030008C3030008C3030008C303000828
:1000A000C3030008C3030008C3030008C303000818
:1000B000C3030008A9980008E1980008C3030008DA
:1000C000C3030008C3030008C3030008C3030008F8
:1000D000C3030008D9A10008C3030008C303000834
:1000E000C30300085D94000800000000C30300087B
:1000F000C3030008C3030008C3030008C3030008C8
:10010000C3030008C3030008C3030008C3030008B7
:10011000C3030008C3030008C3030008C3030008A7
:10012000C3030008C3030008C3030008C303000897
:10013000C303000869100008C3030008C3030008D4
:1001400000000000000000000000000000000000AF
:10015000C3030008C3030008C3030008C303000867
:10016000C3030008C3030008C3030008C303000857
:10017000C3030008C3030008C30300080000000015
:10018000C3030008C3030008C3030008C303000837
:10019000C3030008C3030008C3030008C303000827
:1001A000C3030008C3030008C3030008C303000817
:1001B000C3030008C3030008C3030008C303000807
:1001C000C3030008C3030008C3030008C3030008F7
:1001D000C3030008C3030008C3030008C3030008E7
:1001E000C3030008C3030008C3030008C3030008D7
:1001F000C3030008C3030008C3030008C3030008C7
:10020000C3030008C3030008C3030008C3030008B6
:10021000C3030008C3030008C3030008C3030008A6
:10022000C3030008C3030008C30300080000000064
:10023000C3030008C303000800000000C303000854
:10024000C3030008C3030008C3030008C303000876
:10025000C3030008C3030008C3030008C303000866
:10026000C3030008C3030008C3030008C303000856
:10027000C3030008C3030008C30300080000000014
:10028000C303000800000000C303000800000000D2
:1002900000000000C303000800F002F800F06DF851
:1002A0000AA090E8000C82448344AAF10107DA45D1
:1002B00001D100F062F8AFF2090EBAE80F0013F0B6
:1002C000010F18BFFB1A43F001031847040A03008B
:1002D000240A03000A444FF0000C10F8013B13F00D
:1002E000070408BF10F8014B1D1108BF10F8015B8F
:1002F000641E05D010F8016B641E01F8016BF9D182
:1003000013F0080F1EBF10F8014BAD1C0C1B09D1D8
:100310006D1E58BF01F801CBFAD505E014F8016B4A
:1003200001F8016B6D1EF9D59142D6D370470000DC
:100330000023002400250026103A28BF78C1FBD8EE
:10034000520728BF30C148BF0B607047642900F0D6
:100350003381752900F03081782900F069816329A3
:1003600000F07F84732900F08484002070471FB55B
:1003700012F03CFA1FBD10B510BD00F095FC1146FF
:10038000FFF7F5FF0DF07EF800F0B3FC03B4FFF7C4
:10039000F2FF03BC09F05AFF30BF72B6704762B675
:1003A000704780F30888704709488047094800472C
:1003B000FEE7FEE7FEE7FEE7FEE7FEE7FEE7FEE715
:1003C000FEE7FEE704480549054A064B7047000072
:1003D0002598000899020008D0400324D046032441
:1003E000D0420324D042032453EA020C00F0698077
:1003F0002DE9F04B4FF00006002B1FBFB3FA83F539
:1004000003FA05F424FA05F65E4012BF1643B2FA69
:1004100082F502FA05F4C5F120051EBF22FA05FC9B
:1004200044EA0C04203556EA044C4FEA144418BF41
:10043000641C4FF000084FF00009904271EB030C70
:1004400039D3002919BFB1FA81F701FA07F6B0FADA
:1004500080F700FA07F6C7F120071EBF20FA07FC55
:1004600046EA0C062037B6FBF4FCA7EB0507103F65
:1004700007F01F0BCBF120060CFA0BFB2CFA06F64B
:1004800044BFB3460026202FA4BF5E464FF0000BAA
:100490005BEA060C08BF4FF0010B19EB0B09ABFB35
:1004A000027C48EB0608C01B06FB02CC0BFB03CC0E
:1004B00071EB0C01C1E70B46024641464846BDE8D8
:1004C000F08B13B54FF000004FF00001AFF3008048
:1004D000BDE81C40704700000FB4044910B503AAE2
:1004E000029800F0CBFB10BC5DF814FB1000002458
:1004F0000FB41CB5074B06AA7B44694600900598CB
:1005000000F08DFB0020694600F09CFB1CBC5DF8F0
:1005100014FB00004907000070B5044685690068B7
:10052000C10601D5302600E02026C00707D070BDE7
:10053000D4E9012130469047206A401C20626D1E9C
:10054000F6D570BD70B5044685690078C00707D13F
:1005500070BDD4E9012120209047206A401C206210
:100560006D1EF6D570BD70B50C460546012A05D046
:100570002878800600D5EA69002302E0012305E01F
:100580005B1C934202D2E05C0028F9D1A869E6180E
:10059000C01AA861286A184428622846FFF7BCFFE1
:1005A00004E0D5E9012114F8010B9047B442F8D3D7
:1005B0002846FFF7C7FF70BD2DE9F041064600242D
:1005C00010687529314616A510D0AFF300800028B9
:1005D00002DA404213A507E031688A0701D512A567
:1005E00002E0490704D511A5012401E0AFF3008022
:1005F00000210A2206F1240709E0B0FBF2FCB0FB5F
:10060000F2F302FB1C00303078541846491C0028D5
:10061000F3D123462A463046BDE8F04100F0A1BAA6
:10062000000000002D0000002B0000002000000052
:1006300070B504460D4621461068AFF3008021884E
:10064000090502D50F4A7A4402E00E4A7A440E3276
:10065000002104F1240305E000F00F060009965D77
:100660005E54491C0028F7D120780023000704D5E8
:10067000702D02D009B1022311322046BDE870402E
:1006800000F06FBA2A0403002DE9F05F89460446A2
:100690004FF0000ADFF874B1FB44C0F820A02046F8
:1006A000E1688847002874D0252806D0D4E90121C4
:1006B0009047206A401C2062F1E700265F462046F2
:1006C000E16888472028054607DB312D05D27819D7
:1006D00010F8200C08B10643F1E7B00701D526F069
:1006E0000406C4F81CA00027C4F818A02A2D09D0BD
:1006F000284609F0A4FD38B304EB8708303DC8F85C
:10070000185019E059F8041B204604EB8702916148
:10071000E1688847012F054618D1E069002820DAF2
:1007200026F020061DE0D8F8180000EB800005EB4D
:1007300040003038C8F818002046E1688847054670
:1007400009F07DFD0028EED1012F0AD02E2D08D111
:100750002046E16888477F1C0546022F46F02006A8
:10076000C4DBA069002803DA404246F00106A0611C
:10077000F00701D026F010066C2D0BD0682D09D0A3
:100780004C2D39D06A2D35D0742D35D07A2D33D0FB
:1007900016E038E0E1682F4620468847B842054613
:1007A00009D16C2F26D04FF48060E16806432046C3
:1007B0008847054604E06C2F1AD04FF4807006433A
:1007C0000DB3A5F14100192802D8203546F4006682
:1007D0004A462946204626604E46FFF7B7FD80B1BF
:1007E00001280BD0F61D26F0070000F1080956E796
:1007F0004020E4E78020D8E70020D6E706F104098E
:100800004DE7284652E7206ABDE8F09F0004030048
:10081000401ECAB210F8011F8A4202D00029F9D145
:100820000020704730B505460B462A4613F8014BA9
:1008300012F8010B08B1A042F8D01CB1002802D078
:100840006D1CF1E7284630BD40EA010310B59B0757
:100850000FD1042A0DD310C808C9121F9C42F8D02A
:1008600020BA19BA884201D9012010BD4FF0FF30DB
:1008700010BD1AB1D30703D0521C07E0002010BDF1
:1008800010F8013B11F8014B1B1B07D110F8013B7D
:1008900011F8014B1B1B01D1921EF1D1184610BD5E
:1008A00010B5431C02E010F8011B71B18107FAD1A9
:1008B0004FF0013202C88C1A8C4314EAC211F9D0ED
:1008C000C01A0A0603D0C01E10BDC01A10BD0A040B
:1008D00001D0801E10BD0902FCD0401E10BD40EAB0
:1008E000010370B59B072ED14FF00136042A2AD39D
:1008F00008C810C99D1B9D43121F15EAC61517D0C5
:10090000D8B2E1B2401A50EA056110D198B2A1B252
:10091000401A50EA05410AD123F07F4024F07F417C
:10092000401A50EA052102D1180EA0EB146070BDE8
:10093000A342DBD018BA21BA884201D9012070BD88
:100940004FF0FF3070BD0AB9002070BD10F8013BB8
:1009500011F8014B63B1A3420AD1521E08D010F81E
:10096000013B11F8014B1BB1A34201D1521EEDD145
:10097000181B70BD032A40F2308010F0030C00F009
:10098000158011F8013BBCF1020F624498BF11F8C9
:1009900001CB00F8013B38BF11F8013BA2F1040282
:1009A00098BF00F801CB38BF00F8013B11F00303FA
:1009B00000F02580083AC0F0088051F8043B083A5E
:1009C00051F804CBA0E80810F5E7121D5CBF51F800
:1009D000043B40F8043BAFF30080D20724BF11F87A
:1009E000013B11F801CB48BF11F8012B24BF00F8DF
:1009F000013B00F801CB48BF00F8012B704710B550
:100A0000203AC0F00B80B1E81850203AA0E8185006
:100A1000B1E81850A0E81850BFF4F5AF5FEA027CC7
:100A200024BFB1E81850A0E8185044BF18C918C036
:100A3000BDE810405FEA827C24BF51F8043B40F8D7
:100A4000043B08BF7047D20728BF31F8023B48BFBC
:100A500011F8012B28BF20F8023B48BF00F8012BFA
:100A600070474FF000020429C0F0128010F0030C10
:100A700000F01B80CCF1040CBCF1020F18BF00F891
:100A8000012BA8BF20F8022BA1EB0C0100F00DB840
:100A90005FEAC17C24BF00F8012B00F8012B48BF9E
:100AA00000F8012B70474FF0000200B51346944642
:100AB0009646203922BFA0E80C50A0E80C50B1F1B6
:100AC0002001BFF4F7AF090728BFA0E80C5048BFCA
:100AD0000CC05DF804EB890028BF40F8042B08BF68
:100AE000704748BF20F8022B11F0804F18BF00F864
:100AF000012B70474FF0013C50F8042B51F8043B98
:100B00009A4215D1A2EB0C03934313EACC130BD1F9
:100B100050F8042B51F8043B9A4209D1A2EB0C0384
:100B2000934313EACC13E7D04FF00000704700BFA7
:100B3000D01A01BAB1FA81F101F0180122FA01F0DC
:100B4000CB40C1F12001DBB2C0B2C01A2CFA01F3D4
:100B5000D11A914311EAC311E6D17047704770472B
:100B600070472DE9F0470D4699469246044600F13C
:100B700024080168880604D5E06921F0100121608D
:100B800000E00120A84201DD471B00E00027A16929
:100B90007A1902EB0900081AA0612078C00602D475
:100BA0002046FFF7B9FC002608E0D4E901211AF835
:100BB00006009047206A401C761C20624E45F4DBFC
:100BC0002078C0060AD52046FFF7A6FC06E0D4E947
:100BD000012130209047206A401C2062381EA7F176
:100BE0000107F4DC07E0D4E9012118F8050090477B
:100BF000206A401C2062281EA5F10105F3DC204676
:100C0000FFF7A0FC2078000602D50220BDE8F0879F
:100C10000120FBE701694A1C02610878704700B5B2
:100C20008FB0CDE901310021059105497944CDE925
:100C3000031011466846FFF727FD0FB000BD000006
:100C4000E5FFFFFF0A6802F8010B0A60704710B564
:100C5000436913B1AFF3008001E0FFF784FC01208A
:100C600010BD127800F124010A7000224A7001229E
:100C7000EDE711684FF0FF32E9E70000074B70B570
:100C80000D467B44FFF7CBFF0446284600F008F8EA
:100C900010B14FF0FF3070BD204670BDFFAA0000BC
:100CA000007B00F080007047754600F02BF8AE46E0
:100CB00005006946534620F00700854618B020B568
:100CC000FFF780FBBDE820404FF000064FF0000723
:100CD0004FF000084FF0000B21F00701AC46ACE8E4
:100CE000C009ACE8C009ACE8C009ACE8C0098D4651
:100CF000704710B50446AFF300802046BDE81040B1
:100D0000FFF744BB004870476C40032470B50446AD
:100D10000068816801F00301012925D10168C90734
:100D200022D0816801F00D0101290FD1816841F0C5
:100D30000201816021680320086002F0FFF9054686
:100D40000EE002F0FBF9401B022809D9606D40F06B
:100D500010006065A06D40F00100A065012070BD2D
:100D600020688068C007ECD1002070BD70B50446D3
:100D70000068816801F00301012902D10168C907F7
:100D800023D18168124A114210D1816841F00101DA
:100D9000816002F0D3F9054612E0816841F001015B
:100DA000816002F0CBF9401B022809D9606D40F048
:100DB00010006065A06D40F00100A065012070BDCD
:100DC00020680168C943C907E7D1002070BD000051
:100DD0003F00008070B5B0B029495422044617A8DE
:100DE000FFF70DFE2648416D2C91816D2D91C16D4F
:100DF000006E0A255422CDE92E101320CDE91505E9
:100E00001BA96846FFF7FBFD17AE96E80F0000F040
:100E10006EFD00EE100A9FED1B1B4FF47A70B8EECA
:100E2000400B642320EE010BBCEEC00B10EE101A39
:100E3000B1FBF0F0C2B26FF07C0012FB00F001EBEE
:100E4000C000B0FBF3F04FF47A7312FB03F33032BF
:100E50002270C0B200EBC00606EB001630306070A6
:100E600003EB86068B1BB3FBF5F303EB83053033F3
:100E7000A37006EB4505491B3031E17030B070BD01
:100E8000C00500249A9999999999E93F2DE9F04173
:100E900016461D4600240F4629A00A46314600F09A
:100EA000F1FC401C21D00121002008F08DF91AE04E
:100EB00056F8240022A1FFF71DFE90B955F8240032
:100EC00021A1FFF717FE30B155F8240020A1FFF74C
:100ED00011FE10B105E0002100E00121002008F022
:100EE00073F9641CE4B2BC42E2DB1B4C01212046D6
:100EF00002F016F918B9002008F04AF928B10121CA
:100F0000204602F00DF918B107E014A0BDE8F08109
:100F1000002008F03DF9012806D00121204602F00A
:100F2000FFF8012802D006E013A0EFE7002008F048
:100F30002FF9012801D018A0E8E71FA0E6E700007C
:100F40004245455000000000424545504F4E0000CC
:100F5000424545504F464600000402582F53544D19
:100F600033325F4C45445F4F4E5F424545505F4FC3
:100F70004E2E7368746D6C002F53544D33325F4C9A
:100F800045445F4F4E5F424545505F4F46462E7386
:100F900068746D6C000000002F53544D33325F4C69
:100FA00045445F4F46465F424545505F4F4E2E7366
:100FB00068746D6C000000002F53544D33325F4C49
:100FC00045445F4F46465F424545505F4F46462E7B
:100FD0007368746D6C000000FEE70000F0B5BFF3AD
:100FE0004F8FBFF36F8F1D4900200860BFF34F8FF5
:100FF000BFF36F8F1A4C216841F400312160BFF3B9
:101000004F8FBFF36F8F164970310860BFF34F8F5A
:10101000081F006843F6FF75104E1036C0F34E31BE
:10102000C0F3C90305EA4112184642EA80773760E7
:10103000401EFAD2491EF5D2BFF34F8F206840F40C
:1010400080302060BFF34F8FBFF36F8F03484C3069
:10105000016841F004010160F0BD000050EF00E0C4
:1010600014ED00E07047000010B50CF09FF8064842
:101070004FF40041006800F58B5001604021016091
:101080000121016010BD00005805002470B5A2B018
:1010900006460024694601258DF804506803069031
:1010A0008DF80F504FF4C3608DF80E500D90202036
:1010B0008DF81D408DF80C4009948DF81F40129456
:1010C0008DF832508DF828408DF8605017904FF011
:1010D00040508DF838400F9402948DF861408DF89F
:1010E0001C4014948DF862400B948DF81E500090B3
:1010F000A8038DF811508DF840408DF831400590CF
:1011000002208DF812408DF85640169030468DF82A
:1011100020508DF854408DF830408DF810508DF8E7
:101120000D408DF8554011948DF84C5000F0CEF9DB
:101130001B9569058DF871404FF406708DF8685065
:1011400019948DF880408DF870401F918DF878408B
:101150001D9119A98DF881402190304600F066F963
:1011600022B070BD2DE9F047846A00F1180692465E
:101170008B680027254656F82420D2F80CC0BCF115
:10118000000F63DB91F800805FEA487837D5D1F82B
:1011900024806FF30F0C4CEA080C4CF4803CC2F82E
:1011A0000CC0D0F800C0DCF8608048F48018CCF89F
:1011B000608091F800C05FEA0C7C20D5B1F82CC0AB
:1011C000A2F80AC0D2F80CC04CF4003CC2F80CC023
:1011D000D1F830802CF4402C4CEA080CC2F80CC03A
:1011E000D0F800C0DCF8648048F48018CCF8648043
:1011F0000068D0F850C04CF0806CC0F850C008783F
:10120000C0060BD59068D1F818C06FF30D0040EA06
:101210000C009060D06840F08060D060087810F0DA
:10122000140F14D0D068641C042C40F04040D060EF
:1012300000D3241F012756F82420D068002806DA9E
:1012400056F82500C16821F00041C1608DE01868A2
:101250007F1C10604FF000099068D3F804C06FF352
:101260000D0040EA0C009060D3F80880DFF8B8C1A8
:10127000B8F1000F0BD04346D8F80080C2F80480C4
:1012800000EA0C00B3F8048040EA084003E000EAFA
:101290000C00C2F8049090600878C006D0680FD5A2
:1012A000B1F8208020F4F00040EAC840D060D1F8C6
:1012B0001C806FF3110040EA080040F480201CE01D
:1012C000D1F804806FF30E0040EA0800D06091F876
:1012D00000805FEAC87806D0D1F8148020F440304E
:1012E00040EA0800D0600878800607D5D068D1F8B9
:1012F000108020F0406040EA0800D0600878400785
:1013000007D59068D1F8288020F4404040EA0800D2
:101310009060D06820F0804040F02040D06091F88C
:1013200000805FEA887869D5D1F80C8020F0607081
:1013300040EA080061E0641C042C00D3241F56F826
:101340002420D068002813DA56F8251000200AE07F
:10135000CA686D1C042D22F00042CA6000D32D1F04
:10136000401C56F82510B842F2D30220BDE8F087A1
:1013700018687F1C10609068D3F804806FF30D002C
:1013800040EA08009060D3F80880B8F1000F0BD055
:101390004346D8F80080C2F8048000EA0C00B3F895
:1013A000048040EA084003E000EA0C00C2F8049020
:1013B00090600878C006D06808D5D1F81C806FF31B
:1013C000110040EA080040F4802011E0D1F80480C8
:1013D0006FF30E0040EA0800D06091F800805FEAE9
:1013E000C87815D0D1F8148020F4403040EA0800C5
:1013F000D06020F0804040F00040D0609B68002B1F
:1014000099D19068BAF1000F04D040F0004003E099
:10141000D068EEE720F000409060D06840F0805047
:10142000D06000203461A1E7FFFF00C030B5026842
:1014300002F58052136847F60204A3430C68234365
:1014400013600A790B7B120342EAC3338A681343A1
:10145000026802F5805254684DF20105AC431C430A
:1014600054604B7B0A6A42EA0343026802F58052E9
:10147000D2F80041124D2C401C43C2F800410A7DB5
:101480004B7F120142EA03330A691343026802F5F3
:101490008052D2F804410B4D2C401C43C2F8044149
:1014A00000688A69097F00F5805042EAC171D0F86E
:1014B0000821054B1A400A43C0F8082130BD00003E
:1014C00000C0FEFFEFEFC0FFFFFFC07F30B50B682D
:1014D0008A680C7B1A430B79DB0643EAC4531A4330
:1014E0004B7B42EA83528B7B42EA4352CB7B42EAFC
:1014F00003530A7C002A7CD0002243EAC2434A7C80
:10150000002A78D0002243EA42428B7C42EA03421E
:101510004B691A438B691A430B7F42EA03324B7FB4
:1015200042EAC3238A7F002A66D0002243EA82224D
:10153000CB7F42EA432391F82020002A7ED000226C
:1015400043EA02224B6A1A4391F8283042EA031315
:10155000CA6A134302681468434D2C401C4314604C
:1015600091F83C2091F83830520642EA036291F833
:10157000303042EA834291F8313042EA434391F8F5
:101580003220BAB3002243EA02434A6B1343026893
:101590005468364D2C401C43546091F840304A6CDE
:1015A00042EA03230268D46840F20F15AC431C439F
:1015B000D46091F854300A6D42EA430391F84C200C
:1015C000EAB30022B1F84840D20142EA0442134390
:1015D0000268146F4FF60D752C401C43146791F888
:1015E000553091F8562042EA43030268D2F8904001
:1015F00003E02BE032E02BE02CE024F003041C435A
:10160000C2F890400268D2F8003D8C6D23F072035E
:101610002343C2F8003D91F86020CB6D12B3002245
:10162000006843EA821291F8613091F862101B0160
:1016300043EAC1010A43D0F8301D01E00CE00FE09D
:1016400021F07B011143C0F8301D30BD012254E769
:10165000012258E7012269E7012271E7012292E79E
:101660000122AFE70122DBE7838004000080F8C09D
:1016700070B5B3F5804F05D06FF0704140F822107F
:10168000002070BD50F82230084C2340D1E90045BD
:101690008E8944EA05148D6889692D0245EA06455C
:1016A0002C430C431C4340F82240E9E70000F0CFF4
:1016B000F0B50C6850F824501A4A1540D1E90123BE
:1016C000D1E903671A433E4332434E6932438E6980
:1016D0003243CE6932430E6A32434E6A32438E6AD7
:1016E0003243CE6A32430E6B32438E6B32434E6BC3
:1016F00032432A43082B01D142F0400240F8242013
:101700000A6BB2F5801F05D10A684AB1026842F43B
:10171000801202600A681AB10268496B0A430260CB
:101720000020F0BD8004C0FF00EB8202F0B55368DA
:101730008E8903F04044D1E9003543EA05138D68F2
:101740002D0245EA06450E8A2B430D4D05EB065644
:1017500033430E7D6F0107EB066633438E693343D7
:10176000234353600268D20207D54268098A22F4F3
:10177000700205EB0151114341600020F0BD0000F3
:101780000000F0FF30B5D1E901230D681A43D1E91B
:10179000033423431A434B691A438B691A43D1E933
:1017A0000734496A012D056807D01A4322430A43CA
:1017B0006FF30E052A4302600AE025F4F84523433F
:1017C00029430B43416803606FF30E010A434260F3
:1017D000002030BD426942EA41014161002070476A
:1017E00018B5D1E900236FF01F041A438B68C9684C
:1017F00004EB431343EA41210A43009202610020B3
:1018000018BD0000F0B5D1E900346FF00F055B1E84
:101810002E0105EB041423438C682F034FEA054C7B
:101820000D8A06EB04248E8A2343CC68097E4FF090
:101830007F4E012A07EB05450CEB06560EEB0161C6
:101840000CD082683F1107EB043423432B4333430E
:101850000B4302F07042134383600FE08768084A2D
:1018600017402203C468A2F5805232433A43826093
:101870002B430B4304F070442343C3600020F0BDAE
:10188000FF0F0FFF2DE9F041002415460E460746D5
:1018900006E056F824103846FFF72CF930B1641CE6
:1018A000AC42F6DB4FF0FF30BDE8F0812046FBE7AD
:1018B0000FB400B587B069462198009001200190CF
:1018C00007200290002003900490059008A800F0E3
:1018D000E5F808A800F07CFD0A2108A800F0DCFC6F
:1018E00008A800F06FFB07B080B25DF814FB0FB4DE
:1018F0002DE9F041B0B000250DF168082C46DDE976
:101900004F761EE0542236A916A8FFF778F84B98B8
:101910002B904C982C904D984E9954221597CDE9C8
:101920002D0141466846FFF76AF80DF1580C9CE816
:101930000F00FFF7BDFF0544052008F0A1FC641C63
:10194000E4B2B442DED3B5FBF6F030B0BDE8F0014E
:1019500080B25DF814FB000010B524482DED028B19
:10196000B0B004882148203000885422DFED200ADE
:10197000001B204900EE100A17A8B8EEC00A80EE3E
:10198000808AFFF73CF81B48416D2C91806D2D90AB
:1019900018491C31086C496C5422CDE92E010A21EA
:1019A0001220CDE915011BA96846FFF728F80DF1B3
:1019B0005C0C9CE80F00FFF79AFF001B00EE100A7A
:1019C0009FED0D1B30B0F8EE400AB3EE0E0A08EEA4
:1019D000200ABDEC028BB7EEC00A20EE010BBDEE73
:1019E000C00B10EE100A00B210BD000020E8F11F7D
:1019F0000000A0422406002400000000000059401E
:101A00002DE9F041044690F85000002516460128C3
:101A10000F460CD0012084F850002046FFF776F9DD
:101A20000100606D2A4605D040F0100031E0022030
:101A3000BDE8F08120F4885040F002006065206825
:101A4000836823F08043334383602068836823F4F2
:101A500080333B4383602068836843F000438360A6
:101A600020684FF47A460CE06D1CB54209D3606DD6
:101A700020F0020040F010006065012084F8502042
:101A8000D6E78368002BEFDB606D20F0020040F0AA
:101A900001006065084684F85020C9E72DE9F84F39
:101AA0000023FC4C4FF0804E9B46009390F8502052
:101AB000012A28D0012580F85050026896687607E0
:101AC0007ED4D669AA460F78BD402E43D6614A68B7
:101AD0001F254FF4F868052A18D20668376B98FA64
:101AE000A8FCBCFA8CFC02FB0CFC05FA0CF598FA7D
:101AF000A8FCAF430D68BCFA8CFC02FB0CF29540CD
:101B00002F43376349E00220BDE8F88F0A2A16D236
:101B10000668776B98FAA8FC521FBCFA8CFC02FB93
:101B20000CFC05FA0CF598FAA8FCAF430D68BCFA5A
:101B30008CFC02FB0CF295402F4377632DE0066886
:101B40000F2A15D2B76B98FAA8FC0A3ABCFA8CFC9B
:101B500002FB0CFC05FA0CF598FAA8FCAF430D68E3
:101B6000BCFA8CFC02FB0CF295402F43B76314E0E7
:101B7000F76B98FAA8FC0F3ABCFA8CFC02FB0CFC41
:101B800005FA0CF598FAA8FCAF430D68BCFA8CFC7A
:101B900002FB0CF295402F43F763026895684FF003
:101BA00038064FF0070915F00C0F7DD10D680A2D8E
:101BB0001BD3976996FAA6FC0A3DBCFA8CFC00E0A0
:101BC000C9E105FB0CF809FA08FC96FAA6F827EA21
:101BD0000C07D1F808C0B8FA88F805FB08F50CFA2C
:101BE00005FC47EA0C07976117E0576996FAA6FCCF
:101BF000BCFA8CFC05FB0CF809FA08FC96FAA6F86E
:101C000027EA0C07D1F808C0B8FA88F805FB08F5F0
:101C10000CFA05FC47EA0C07576102684D69D76862
:101C20004FF0F84CC7F382077F00BD400F69012FCA
:101C30004AD0022F6AD0032F7DD0042F7CD0156E9E
:101C40009CFAACF805F0F8470D68B8FA88F805FA80
:101C500008F5AF4203D1156E25F000451566026800
:101C6000556E9CFAACF805F0F8470D68B8FA88F89C
:101C700005FA08F5AF4203D1556E25F000455566CB
:101C80000268956E9CFAACF80F68B8FA88F805F00F
:101C9000F84507FA08F7BD4203D1956E25F00045D7
:101CA00095660268D56E00E02FE09CFAACFC05F06A
:101CB000F8470D68BCFA8CFC05FA0CF5AF4224D14C
:101CC000D56E25F0004589E0176E9CFAACFC07F054
:101CD00000480F68BCFA8CFC07FA0CF72F4348EA5F
:101CE0000708C2F86080026815690F7E25F4006558
:101CF0003D4315614A7E002A0268156E02D045F008
:101D0000004501E025F00045156668E0576E9CFA35
:101D1000ACFC07F000480F68BCFA8CFC07FA0CF723
:101D20002F4348EA0708C2F86480026815690F7EED
:101D300025F4805501E00FE031E045EA47051561E3
:101D40004A7E002A0268556E02D045F0004501E047
:101D500025F00045556642E0976E9CFAACFC07F012
:101D600000480F68BCFA8CFC07FA0CF72F4348EACE
:101D70000708C2F86880026815690F7E25F40055CF
:101D800045EA870515614A7E002A0268956E02D0F1
:101D900045F0004501E025F0004595661FE0D76E4F
:101DA0009CFAACFC07F000480F68BCFA8CFC07FA00
:101DB0000CF72F4348EA0708C2F86C8002681569DF
:101DC0000F7E25F4804545EAC70515614A7E002A45
:101DD00002683FF475AFD56E45F00045D5660268E0
:101DE000956805F00305012D02D11568ED0761D155
:101DF000CD68754507D052F8C06F0F780AFA07F51D
:101E0000AE4316603CE052F8C07F91F800C00AFA79
:101E10000CF52F4317600A680568092A18D3AF69C3
:101E200096FAA6FC093ABCFA8CFC96FAA6F602FBD6
:101E30000CF8B6FA86F609FA08FC724327EA0C0792
:101E4000D1F808C00CFA02FC47EA0C07AF6117E0B2
:101E50006F6996FAA6FC521CBCFA8CFC96FAA6F6A0
:101E600002FB0CF8B6FA86F609FA08FC724327EA78
:101E70000C07D1F808C00CFA02FC47EA0C076F61A6
:101E8000054E0568054FB54201D0BD420AD1044A4E
:101E900009E00000006002580020024000210240DA
:101EA00000230240444A0968122904D0112907D0AE
:101EB00013290AD054E0D2F808C04FEA0C2C08E0ED
:101EC000D2F808C04FEACC1C03E0D2F808C04FEAB1
:101ED0004C2CBCF1000F43DBD5F808C00CF0030C10
:101EE000BCF1010F04D1D5F800C05FEACC7C32D13F
:101EF000B54210D1D6F8087107F00307012F03D1BE
:101F0000D6F80061F60726D1A66806F00306012E72
:101F10002AD126681DE0BD42B76807F003070BD140
:101F2000012F02D13768FF0715D1A76807F0030713
:101F3000012F06D1276802E0012F02D13768FF0781
:101F400009D1D6F8087107F00307012F0CD1D6F894
:101F50000061F60708D0416D41F020014165012381
:101F600080F850B01846CFE512290AD011291CD0AC
:101F70001329F5D1A542F3D1916841F48001916014
:101F8000EEE7A542ECD1916841F4000191600B4964
:101F90000B4A0968B1FBF2F1C1EB0111C90000E085
:101FA000491E00910029FBD1DAE7A542D8D19168FA
:101FB00041F08071E3E70000006302580000002454
:101FC00080841E000068006C70470000F8B54FF078
:101FD000000504002E46009502D0606D10B107E0A8
:101FE0000120F8BD204600F021F9A66584F8506074
:101FF00020688168890003D5816821F000518160E3
:1020000020688168C90010D4816841F080518160E6
:102010007D487E490068B0FBF1F000EB8000400095
:1020200000E0401E00900028FBD120688168C900B4
:1020300008D4616D41F010016165A16D41F00101AD
:10204000A1650125616DC9067ED481684907FBD46D
:10205000616D41F0020161656D4A6E4E904201D0A2
:10206000B04201D16C4900E06C49836803F003037E
:10207000012B02D10368DB0739D1694B904210D1A3
:10208000D2F8080100F00300012803D1D2F80001C2
:10209000C0072CD1986800F00300012821D11868EE
:1020A0001DE0B042906800F003000BD1012802D17E
:1020B0001068C0071BD1986800F00300012806D102
:1020C000186802E0012802D11068C0070FD1D2F8C9
:1020D000080100F00300012803D1D2F80001C00775
:1020E00005D18868626820F47C1010438860A1687C
:1020F0004FF48033206B627D93FAA3F308434FF4CF
:102100000051B3FA83F391FAA1F1B1FA81F18A4057
:10211000217F01FA03F31A431043012909D14FF437
:102120006022216A92FAA2F2491EB2FA82F291402A
:102130000843616A012903D0A26A0AB11143084326
:102140002168CA68374B00E056E01A400243CA6073
:102150002068816811F00C0F28D14FF48042217D56
:1021600092FAA2F2B2FA82F29140E26A1143C26894
:1021700044F203039A430A43C26094F839000128E9
:102180001CD02068016921F001010161206801690A
:10219000626B21F070411143016194F8380001280D
:1021A000206881681AD021F480718160E06801287C
:1021B0002068016B21F00F0113D015E0D4E9101055
:1021C000A28F01230143A06C03EB024210430143A1
:1021D00020680269144B1A401143D6E741F480711C
:1021E000E3E7A269521E11430163606D20F0020013
:1021F00040F00100606504E0606D40F01000606533
:1022000001252846F8BD00000000002480841E003F
:1022100000200240002102400023024000630258D7
:102220000060025803C0F0FF1EF800FC184800B51B
:10223000B5B0016841F020010160006800F02000A5
:10224000349013480830016841F0807101600168E2
:1022500001F080713491016841F001010160006872
:1022600000F0010034904FF400200090801028907E
:10227000684601F0D1FA20202F90032030900020F2
:10228000319004482FA900F057FE35B000BD000082
:10229000D8440258000002582DE9F047044600696E
:1022A000DFF81C91012608280F4622D020684946F5
:1022B000884202D0434A90421DD1D1F80823D20669
:1022C00019D0D1F8082302F01F02052A13D0D1F843
:1022D000081301F01F0109290DD03B488168C1F3A3
:1022E000813102290AD08068C0F38130032805D0EB
:1022F0000BE008250AE0C068C00706D0606D40F01A
:10230000200060650120BDE8F087042500F016FF7D
:10231000804611E0781C0FD02FB100F00FFFA0EB2A
:102320000800B84208D9606D40F0040060650020E4
:1023300084F850000320E6E7206800682842E9D0CE
:1023400020680168090700D400264946884224D045
:102350001E4A904221D0D1F80823D2061DD0D1F8D0
:10236000082302F01F02052A17D0D1F8082302F033
:102370001F02092A11D0C968082D10D04A0401D4BF
:1023800004220260606D40F400706065B6B12068A0
:10239000C06810F4406F04D010E0C168ECE7082278
:1023A000EFE788040AD4606D20F480706065606D8A
:1023B000C00403D4606D40F0010060650020A2E716
:1023C0000020024000210240002302400060025829
:1023D00070B5044600688068400767D494F85000E0
:1023E00001280AD0012084F850002046FEF7BEFCE8
:1023F00001004FF0000202D045E0022070BD606D88
:10240000C00404D5A06D20F00600A06500E0A26520
:10241000606D40F60163984340F480706065254B21
:102420002068984206D0244DA84203D0D3F8085320
:10243000ED0603D1656D25F4801565651C250560E5
:102440002068984222D01D4DA8421FD0D3F80853CF
:10245000ED061BD0D3F8085305F01F05052D15D048
:10246000D3F8085305F01F05092D0FD0606D40F417
:1024700080106065D868800105D5606D20F400503B
:1024800040F48050606584F8502010E0C3689B01E0
:1024900005D5636D23F4005343F48053636584F8DA
:1024A0005020826842F00402826000E00221084667
:1024B00070BD000000200240002102400060025870
:1024C00010B528B190F83510022903D0802141655C
:1024D000012010BD1D4A4FF4956301688C189C4281
:1024E00007D8042280F83520086820F00100086031
:1024F00029E00C6824F00E040C6001680A440A68A4
:1025000022F001020A60016E0A6822F480720A60F9
:1025100090F85C30012202FA03F10D4B1960D0E90A
:1025200019134B60C16E31B10B6823F480730B60DB
:10253000D0E91C134B60002180F8341080F835205E
:10254000016D01B18847002010BD0000F0FFFDBF04
:102550000454025870B5026C00F12C03456C53F81A
:10256000221025B1DC6904B16D1C002423E0012098
:1025700070BD0E690E604FF08076CE604E692EB150
:102580004E698E60CE6846F00076CE60CE6846F02A
:102590000046CE601E6A1EB1CE6846F08046CE6010
:1025A0009E69761EA64205D9521C042A00D3121F2A
:1025B00053F82210641CAC42DBD3006800F5805055
:1025C000C0F828110020986170BD10B500EB81049F
:1025D000E46A0AB1042903D301214165084610BD0C
:1025E00022602261E06840F08070E0604BB1A3603F
:1025F00040F000706361E06040F00040E060002067
:1026000010BDE068F8E700297DD00268126802F08A
:102610000C02CA6202681268C2F3001281F8282014
:102620000268126802F060024A620268126842F3AD
:102630000022521C81F8202002681268C2F3402256
:10264000CA770268126842F38022521C8A770268B5
:102650001268C2F3C0224A7702681268C2F30032DD
:102660000A770268126802F400528A6102681268EE
:1026700002F480424A6102681268C2F300428A741E
:102680000268126842F34042521C4A74026812689F
:1026900042F3C042521C0A7402681268C2F300522C
:1026A000CA7302681268C2F340528A7302681268E1
:1026B000C2F380524A7302681268C2F3C0520A73AE
:1026C0000268126802F0E0628A6002681268C2F36F
:1026D000C0620A710268126802F0E0420A60026891
:1026E0005268C2F30D024A630268526842F3004224
:1026F000521C81F8322002685268C2F3404281F8CD
:102700003120026800E062E05268C2F3804281F842
:10271000302002685268C2F3006281F838200268F3
:102720005268C2F34462CA630268D268C2F30022EC
:1027300081F840200268D26802F00F024A64026801
:10274000126FC2F3400281F854200268126F42F304
:10275000C012521C81F84C200268126F02F0700205
:102760000A650268126F120C8A640268D2F890201F
:1027700002F0010281F856200268D2F89020C2F3DC
:10278000400281F855200268D2F8002D02F0720252
:102790008A650268D2F8302D02F02302CA65026809
:1027A000D2F8302DC2F3C00281F862200268D2F85C
:1027B000302DC2F3001281F861200068D0F8300D8E
:1027C00040F38010401C81F8600000207047012019
:1027D00070472DE9F043066C00F12C080746406C69
:1027E0000C464FF0000958F8265018B9384600F04A
:1027F00061F9E8B3002017E0696939B3C4B3296906
:10280000216079696160A46894B36969216079691C
:102810006160E968761C042EC1F30E0900D3361FEF
:10282000A468401C58F82650D8F81810491E814258
:10283000E2D8ECB1E868C0F30E01A1EB09007969B8
:10284000814205D32969C4E900100EE02969DDE75A
:10285000696969B12969216079696160A16839B1E3
:102860006A690A607A69801A48600020BDE8F083CE
:10287000FFE70120FAE770B500F12C040D46D4E91A
:10288000056111B900F016F968B1A069761E3044EF
:10289000042800D3001F54F82000C068C0F30E00C5
:1028A0002860002070BD012070BD0000F8B5040054
:1028B00003D094F8510010B104E00120F8BD204687
:1028C00000F05CF9232084F851007048016841F061
:1028D00002010160006800F002000090207A08B157
:1028E0004FF4000002F058FB206800F580500168AA
:1028F00041F00101016000F021FCE02605464FF4A3
:10290000FA7706E000F01AFC401BB84201D9042017
:1029100049E0206800F580500068C007F2D12068C7
:10292000D0F8000220F4706501F0BAFC5849594A09
:102930000144914202D245F4007516E05649574AC7
:102940000144914202D245F440750EE05449554A83
:102950000144914209D3544908445449884202D25F
:1029600045F4807501E045F480652068C0F80052A8
:1029700001F096FC4E49B0FBF1F02168401EC1F811
:10298000DC002046FEF782FB206800F58050D0F87E
:10299000001121F4E01141F40021C0F80011616937
:1029A000880704D00120606584F8516085E72068BD
:1029B00000F58050D0F8082147F6FE739A4342EAAA
:1029C0004101C0F8081100210A46E06801EB41030B
:1029D00000EBC30004EB8103491C02600429426040
:1029E0008260C2609861F0D3A2620323206800F580
:1029F0008050C0F82C312068E16800F58050C0F8A4
:102A000014112068E16800F58050C0F82011002101
:102A1000206901EB410500EBC50004EB8105491C71
:102A20000260042942608260C26002614261E86221
:102A3000EED3E26322646264E264A264206800F57B
:102A40008050C0F830312068216900F58050C0F80E
:102A50001C112168206901F580514830C1F8280116
:102A6000606821688088C1F8000360680178D0F848
:102A7000010041EA00202168C1F8040362651020CA
:102A800084F8510084F852000020F8BDF444025844
:102A900000D3CEFEC0E1E40040F1E9FD40787D01C5
:102AA00000796CFC005A6202001F0AFA80F0FA02F8
:102AB00040420F00F0B5C16B2C3000252C462B4650
:102AC000866950F8212036B30020F0BD6D1CD60079
:102AD00019D5641C012C00D10B46491C042900D3D4
:102AE000091F50F82120D268002A07DB520005D5C3
:102AF0000122C261491C042900D3091F103080E85B
:102B00001A000120F0BD920013D501240B46491C88
:102B100011E050F82120D268002A01DB042DD5D322
:102B20004CB350F8232000214FF080764FF04077CF
:102B30001FE0491C641C0429EBD3091FE9E7156950
:102B40001560D66055690DB19560D760D56845F0C0
:102B50000045D560D0F820C0BCF1000F02D045F090
:102B60008045D5605B1C042B00D31B1F491C50F80B
:102B70002320A142E3D300218161A5E7334800B5BA
:102B800087B0016841F001010160016801F00101B5
:102B90000591016841F002010160016801F0020144
:102BA0000591016841F004010160016801F0040130
:102BB0000591016841F040010160006800F04000AB
:102BC000059022480838016841F40041016001681D
:102BD00001F400410591016841F480310160016810
:102BE00001F480310591016841F400310160006811
:102BF000002100F400300590862000900220CDE9ED
:102C0000010103900B2004906946114800F094F9EB
:102C10004FF4006000900F48694600F08DF93220B3
:102C200000900D48694600F087F94FF4C0400090CD
:102C30000A48694600F080F9002201213D2000F099
:102C400085FC3D2000F075FC07B000BDE044025853
:102C500000000258000402580008025800180258E8
:102C60002DE9F041044600681F46D0F80032DB072A
:102C700018D1D0F8003223F0787343EA415121F49F
:102C8000F81141EA024141F00D01C0F8001200F0D4
:102C900055FA4FF47A76054607E000F04FFA401BEC
:102CA000B04202D90120BDE8F0812068D0F80002CE
:102CB000C007F2D12068D0F8040280B2386000204A
:102CC000F1E710B519B190F85220102A01D0012077
:102CD00010BDFEF7FBFB002010BD000070B50546DF
:102CE0000068D0F8000220F4706401F0D9FA1149AC
:102CF000114A0144914202D244F4007416E00F4993
:102D00000F4A0144914202D244F440740EE00D494E
:102D10000D4A0144914209D30C4908440C498842A8
:102D200002D244F4807401E044F480642868C0F85E
:102D3000004270BD00D3CEFEC0E1E40040F1E9FDE9
:102D400040787D0100796CFC005A6202001F0AFA8B
:102D500080F0FA0210B590F851300021C26A102BB1
:102D600001D0012010BD232380F851300023D46806
:102D7000491C042944F08044D46000D3091F5B1C23
:102D800000EB8102042BD26AF1D30121C1640168F6
:102D90000A6842F002020A6001680A6842F0010211
:102DA0000A600168D1F8002D42F00102C1F8002D3F
:102DB000016801F58051D1F8042142F00102C1F807
:102DC0000421016801F58051D1F8082142F0010287
:102DD000C1F80821016801F58051D1F8602142F461
:102DE0008172C1F86021102180F85110222180F8F1
:102DF0005210006800F58050D0F834114DF24102B5
:102E00001143C0F83411002010BD2DE9F0411546E2
:102E1000044621B194F85100102804D04FE0606DB1
:102E200040F0010007E000222046FEF79BF920B1A8
:102E3000606D40F00200606541E0A06A04EB800133
:102E4000401C04288E69A06201D3001FA06204EB1D
:102E500080008169206800F58050C0F8201100F0E2
:102E60006DF907464FF010081AE0206800F5805011
:102E7000D0F86001C0040BD5606D40F008006065BB
:102E8000206800F58050D0F86001A065E02014E0D3
:102E9000681C05D000F052F9C01BA84208D83DB10B
:102EA000F0680028E1DB84F851800020BDE8F08163
:102EB000606D40F004006065404684F851000120D8
:102EC000F4E7000070B505460068D0F80042E4075A
:102ED0001FD1D0F8000220F0787040EA415011492B
:102EE00020F4F81040EA024020F00C00001D9AB2D5
:102EF000C1F8042240F00100C1F8000200F01EF900
:102F00004FF47A76044606E000F018F9001BB04250
:102F100001D9012070BD2868D0F80002C007F3D1A4
:102F200070BD0000008002400248016841F00101CC
:102F300001607047200400582DE9F84F6C4C0022C6
:102F40004FF0B04A4FF0010B4FF0030E4FF00F0956
:102F50000B680BFA02F73B40BB4270D14D68022D63
:102F600001D0122D12D1D50800EB850CDCF82060C1
:102F70005507ED0E09FA05F826EA0806D1F8108083
:102F800008FA05F848EA0608CCF82080D0F8008056
:102F9000560091F804C00EFA06F50CF0030C28EA6E
:102FA00005080CFA06FC4CEA080CC0F800C0D1F881
:102FB00004C0BCF1010F08D0BCF1020F05D0BCF178
:102FC000110F02D0BCF1120F16D1D0F808C0D1F801
:102FD0000C802CEA050C08FA06F848EA0C08C0F840
:102FE0000880D0F804C02CEA070C0F79C7F300174B
:102FF000974047EA0C074760C768AF438D68B54004
:103000003D43C5604D68ED006BD53A4D2E6846F0E6
:1030100002062E602D6822F0030606F1B04605F088
:1030200002050095D6F808C495072F0F09FA07F591
:103030002CEA050C304DA84202D100252EE050E0CC
:103040002E4DA84201D1012528E02D4DA84201D1E5
:10305000022523E02B4DA84201D103251EE02A4D75
:10306000A84201D1042519E0284DA84201D1052527
:1030700014E0274DA84201D106250FE0254DA842B6
:1030800001D107250AE0244DA84201D1082505E019
:10309000224DA84201D1092500E00A25BD4045EA9C
:1030A0000C05C6F8085425684E689D43F60300D504
:1030B0001D43256065684E689D43B60300D51D43DA
:1030C0006560DAF8005056464F689D43FF0200D510
:1030D0001D43356075684F689D43BF0200D51D4391
:1030E0007560521C102AFFF433AFBDE8F88F000062
:1030F00080000058F44402580000025800040258AE
:1031000000080258000C025800100258001402581F
:1031100000180258001C02580020025800240258CF
:103120000069084000D00120704742694A4042616E
:1031300070470AB101837047418370470148806836
:10314000704700001400002402488168027811448E
:103150008160704714000024032010B500F016FAB7
:103160000F2000F007F808B1012010BD00F0E0F9D1
:10317000002010BD70B50D4D04464FF47A712878CB
:10318000B1FBF0F00A490968B1FBF0F001F01AFF59
:1031900048B9102C07D200222146501E00F0D6F963
:1031A00000206C6070BD012070BD00001400002480
:1031B000000000242DE9F041044690F8A0001546D7
:1031C0000F4601281DD0012684F8A060022084F853
:1031D000A10005EB850000EBC500342204EB800064
:1031E0003830FDF70CFC2A463946204605F0F6FD3E
:1031F0002068466284F8A160002084F8A000BDE841
:10320000F0810220FBE7000070B5040004D094F8C0
:10321000A100002510B106E0012070BD204684F811
:10322000A05000F06BF8022084F8A10020688169AA
:1032300021F070418161D4E901100143D4E9030216
:1032400010430143206882691143816120688268CC
:1032500029490A408260A08A020420688368A6691E
:103260003343134383602068C2680A40C260A08B66
:1032700002042068C368266A33431343C36020688E
:1032800002690A400261A08C020420680369A66AF0
:10329000334313430361206842690A404261A08DB1
:1032A000010420684269236B1A430A43426194F87F
:1032B0003500020294F8360001042068C36A03F066
:1032C0007F43C3622068C36A114394F83460334378
:1032D0000B43C3622068416B41F0060141632068E3
:1032E000816941F001018161C4F8A450012084F892
:1032F000A100002070BD000000F800F0374810B5B4
:1033000086B0016841F008010160006800F0080023
:10331000059032481038016841F0100101600068E2
:1033200000F0100005902D48001F016841F00201D7
:103330000160016801F002010591016841F020017E
:103340000160016801F020010591016841F0400130
:103350000160016801F040010591016841F08001C0
:103360000160016801F080010591016841F48071FC
:10337000016000680324694600F4807005902020F5
:10338000009001200190CDE902041548FFF7D4FD1B
:103390004FF4806000900220019000206946CDE942
:1033A00002040E2004900F48FFF7C6FD4FF40C6096
:1033B00000900D486946FFF7BFFD4FF47E40009036
:1033C0000A486946FFF7B8FD40F2F76000900848E8
:1033D0006946FFF7B1FD06B010BD0000E444025895
:1033E000000402580014025800180258001C025829
:1033F0000020025870B5044690F8A0000E4601283F
:1034000020D0012584F8A050022084F8A10003EB0D
:10341000830000EBC30004EB80018E63086E304430
:10342000C1E90F02486E1044486438311A462046FC
:1034300005F0D4FC2068456284F8A150002084F88F
:10344000A00070BD022070BD70B5044690F8A000C9
:103450000E46012820D0012584F8A050022084F8CF
:10346000A10003EB830000EBC30004EB8001886B39
:103470003044C863086C10444864C1E918623831AC
:103480001A46204605F0AAFC2068456284F8A1503F
:10349000002084F8A00070BD022070BD134A41785E
:1034A0001160111D03780A1DE3B143680B60017BB5
:1034B000C37A090741EA0361837A41EAC341437B46
:1034C00041EA8341837B41EA4341C37B41EA0341B3
:1034D000437A41EA0321037A007841EA4301014338
:1034E00011607047002008601060704798ED00E0A0
:1034F000BFF35F8F0448016821F480310160024905
:10350000002070310860704724ED00E0074940F06A
:103510000100086005487038016841F4803101609D
:10352000BFF34F8FBFF36F8F7047000094ED00E043
:103530007047002809DB012100F01F02914040097B
:10354000800000F1E020C0F8001170470E4BF0B48D
:103550001B68C3F30223C3F10704042C00D904241D
:103560001D1D072D01D2002300E0DB1E012606FAF7
:1035700004F56D1E0D409D409E40761E164045EAA6
:103580000601F0BC06F04BBE0CED00E0064A00F070
:10359000070110684FF6FF03184040EA0120034975
:1035A00008431060704700000CED00E00000FA05D1
:1035B0000248016841F48071016070470048025878
:1035C00010B500F0B3FE084909684FF4807292FA12
:1035D000A2F201F47061B2FA82F2D140034A515C66
:1035E000C8400349086010BD18440258F627010876
:1035F0000000002410B500F053FE074909681022AE
:1036000092FAA2F201F07001B2FA82F2D140034ABA
:10361000515CC84010BD000020440258F627010844
:10362000364930B50A68096812F00302344BC1F319
:1036300005311B68334C03F010032468DFED320AB8
:10364000B7EE001AC4F3CC0414FB03F300EE103AF7
:103650002E4BB8EE400A07D02D4C012A01D0022A89
:103660004AD0B4FBF1F10BE0244C283C22689506CB
:10367000284A03D52468C4F3C104E240B2FBF1F147
:1036800001EE901A1968B8EE612AC1F3080101EE43
:10369000901A1968F8EE611A40EE201A31EE810A8C
:1036A00022EE000AC1F34621491C00EE901AF8EE02
:1036B000600A80EE201AFCEEC10AC0ED000A19680B
:1036C000C1F30641491C00EE901AF8EE600A80EE44
:1036D000201AFCEEC10AC0ED010A1968C1F30661A7
:1036E000491C00EE901AF8EE600A80EE201ABCEE3B
:1036F000C10A80ED020A30BD074ABFE728440258DC
:103700002C4402583C440258000000393844025806
:1037100000093D000090D00340787D01364930B566
:103720000A68096812F00302344BC1F305511B68A3
:10373000334C03F480732468DFED320AB7EE001ACD
:10374000C4F3CC0414FB03F300EE103A2E4BB8EE96
:10375000400A07D02D4C012A01D0022A4AD0B4FBDE
:10376000F1F10BE0244C283C22689506284A03D549
:103770002468C4F3C104E240B2FBF1F101EE901AF7
:103780001968B8EE612AC1F3080101EE901A1968B0
:10379000F8EE611A40EE201A31EE810A22EE000A9C
:1037A000C1F34621491C00EE901AF8EE600A80EE43
:1037B000201AFCEEC10AC0ED000A1968C1F30641E7
:1037C000491C00EE901AF8EE600A80EE201AFCEE1A
:1037D000C10AC0ED010A1968C1F30661491C00EE77
:1037E000901AF8EE600A80EE201ABCEEC10A80ED55
:1037F000020A30BD074ABFE7284402582C44025849
:1038000044440258000000394044025800093D0079
:103810000090D00340787D012DE9F84F0446006800
:1038200000252E46010104F12400FE4FDFF8F88345
:1038300000901DD5606E50B1B0F5801F0CD0B0F572
:10384000001F0ED0B0F5401F1DD001250FE03868D5
:1038500040F40030386016E00221201D05F0DAFC4B
:1038600003E00098022105F04DFD05000BD02E4627
:103870002088C00523D5606D05281ED2DFE800F042
:103880000C11161B1B00D8F80010626E21F44011B9
:103890001143C8F80010EBE7386840F40030386096
:1038A00009E00021201D05F0B5FC03E0009800218F
:1038B00005F028FD05466DB100E001252E43208866
:1038C000800528D5A06D80281ED00CDC90B1402842
:1038D0000ED114E0D8F80010626D21F007011143F9
:1038E000C8F80010EBE7C02813D0B0F5807F10D0E7
:1038F00001250FE0386840F40030386009E000210D
:10390000201D05F087FC03E00098002105F0FAFC7B
:10391000054685B12E432088DFF8109340052CD54D
:10392000D4F8A400B0F5800F20D00DDCA0B1B0F524
:10393000001F0FD115E0D8F80010A26D21F4E0713E
:103940001143C8F80010E6E7B0F5C00F13D0B0F58A
:10395000000F10D001250FE0386840F400303860C7
:1039600009E00021201D05F055FC03E0009800212E
:1039700005F0C8FC054675B12E43208800052DD5FD
:10398000D4F8A800B0F1007F21D00EDCA8B1B0F1CE
:10399000807F10D116E0D9F80010D4F8A42021F4CB
:1039A00060011143C9F80010E7E7B0F1407F13D080
:1039B000B0F1806F10D001250FE0386840F400307E
:1039C000386009E00021201D05F024FC03E0009888
:1039D000002105F097FC05466DB12E43206880015B
:1039E0001FD5A06CD8B110280FD0202812D03028B5
:1039F00015D0012514E0D9F80010D4F8A82021F042
:103A0000E0611143C9F80010E8E7386840F400307D
:103A1000386004E00221201D05F0FCFB05466DB175
:103A20002E432088C0042BD5E06DB0F5005F20D078
:103A30000DDCA0B1B0F5805F0FD115E07A48001F12
:103A40000168A26C21F0300111430160E9E7B0F593
:103A5000405F13D0B0F5804F10D001250FE03868DB
:103A600040F40030386009E00021201D05F0D2FB51
:103A700003E00098002105F045FC054685B12E4382
:103A80002088800429D5206EB0F5403F23D010DC7B
:103A900008B3B0F5803F14D0B0F5003F0FD115E06A
:103AA000D8F80010E26D21F4E0411143C8F800108D
:103AB000E6E7B0F5802F0ED0B0F5A02F0BD0012592
:103AC0000AE00121201D05F0A5FB03E0009801217B
:103AD00005F018FC05468DB12E43208840042AD5F8
:103AE000D4F8AC00B0F1405F23D010DC08B3B0F1E3
:103AF000805F14D0B0F1005F0FD115E0D8F800104E
:103B0000226E21F4E0211143C8F80010E5E7B0F17E
:103B1000804F0ED0B0F1A04F0BD001250AE001215B
:103B2000201D05F077FB03E00098012105F0EAFB7A
:103B300005466DB12E43208800041FD5E06ED8B134
:103B4000B0F1805F0ED0B0F1005F10D0012514E01D
:103B5000D9F80010D4F8AC2021F0E0411143C9F8A5
:103B60000010E8E7386840F40030386004E00121D4
:103B7000201D05F04FFB05466DB12E432068C001A6
:103B80001ED5606CD0B101280ED0022811D00328B8
:103B900014D0012513E0D8F80010E26E21F0405156
:103BA0001143C8F80010E9E7386840F40030386085
:103BB00004E00221201D05F02DFB054675B12E43C2
:103BC0002068DFF86CB040025AD51A48016841F409
:103BD00080710160FFF7B2FA82460EE01248001FC2
:103BE0000168626C21F0030111430160E8E7FFF70F
:103BF000A5FAA0EB0A0064283AD80E480068C00570
:103C0000F5D5B5BB094818300068B4F8B01000F419
:103C1000407001F44071884219D00448183001689E
:103C20000AE000002C4402585044025858440258FC
:103C30001044025800480258026821F4407142F4CE
:103C400080320260026822F4803202600160D4F89F
:103C5000B000B0F5807F22D1FFF770FA824609E00C
:103C6000FFF76CFAA0EB0A0141F28830814201D9DA
:103C7000032504E0FE4800688007F1D57DB12E439E
:103C80002078DFF8F0A3C0073CD0A06F182837D009
:103C900025DC78B3082828D0102824D12BE0D4F8CC
:103CA000B000C0F3012103290ED0DBF8001021F48D
:103CB0007C51CBF80010EE480168B4F8B020C2F394
:103CC0000B0211430160DBE7DBF80020EA4B22F432
:103CD0007C5203EA10100243CBF80020EBE72028C7
:103CE0000ED028280CD001250BE00121201D05F065
:103CF00091FA04E004E00098012105F003FB054679
:103D00005DB12E43207880071ED5606F062819D23A
:103D1000DFE800F0160C11161616DAF80010A26F84
:103D200021F038011143CAF80010EBE70121201DF2
:103D300005F070FA03E00098012105F0E3FA05466A
:103D400075B100E001252E43207840071FD5D4F837
:103D50009000062819D2DFE800F0160C111616168E
:103D6000DAF80010626F21F007011143CAF8001061
:103D7000EAE70121201D05F04DFA03E0009801213A
:103D800005F0C0FA05469DB100E001252E432078DC
:103D900080062BD5D4F88C00B0F1405F24D011DC24
:103DA00010B3B0F1805F15D0B0F1005F10D116E014
:103DB000D9F80010D4F8902021F007011143C9F878
:103DC0000010E4E7B0F1804F0ED0B0F1A04F0BD05F
:103DD00001250AE00021201D05F01CFA03E00098EF
:103DE000022105F08FFA05468DB12E43207840065A
:103DF0002BD5D4F89800B0F5406F24D011DC10B367
:103E0000B0F5806F15D0B0F5006F10D116E0DAF87C
:103E10000010D4F88C2021F0E0411143CAF80010C2
:103E2000E4E7B0F5805F0ED0B0F5A05F0BD00125C0
:103E30000AE00021201D05F0EDF903E000980221C1
:103E400005F060FA05468DB12E43207800062BD58B
:103E5000D4F89C00B0F5C04F24D011DC10B3B0F5FD
:103E6000005F15D0B0F5804F10D116E0D9F80010E2
:103E7000D4F8982021F4E0511143C9F80010E4E788
:103E8000B0F5004F0ED0B0F5204F0BD001250AE061
:103E90000021201D05F0BEF903E00098022105F085
:103EA00031FA054665B32E43207800070BD5D4F8C8
:103EB0008000B0F5805F2DD0DAF8002022F4405267
:103EC0000243CAF800202078C0060BD5D4F894002D
:103ED000B0F5807F24D0D9F8002022F4407202434C
:103EE000C9F80020206800032CD5D4F8A000E8B160
:103EF000B0F5803F1FD0B0F5003F21D0012520E074
:103F0000D9F80010D4F89C2021F460411143C9F87D
:103F10000010C9E70098022105F0F4F90643D2E742
:103F20000098022105F0EEF90643DBE70021201D91
:103F300005F070F903E00098022105F0E3F9054669
:103F400085B12E432068400322D5D4F88400B0F513
:103F5000801F11D0B0F5001F13D0B0F5401F15D051
:103F6000012514E0D9F80010D4F8A02021F4403144
:103F70001143C9F80010E5E7386840F400303860B4
:103F800004E00098012105F0BDF9054655B12E4326
:103F90002068C0031CD5E06C70B1B0F5803F10D034
:103FA000012514E0DAF80010D4F8842021F440113F
:103FB0001143CAF80010EBE7386840F4003038606D
:103FC00004E00221201D05F025F90546C5B12E4368
:103FD0002068800004D50098022105F093F906437B
:103FE000206880031BD5E06FB8B1B0F5807F10D09A
:103FF000B0F5007F11D0B0F5407F0ED001250DE067
:104000001C4808380168E26C21F4803111430160DA
:10401000DEE7386840F40030386045B32E4320684E
:10402000C00207D5D8F80000226F20F000401043EE
:10403000C8F800002068C00008D5DBF80010D4F8EC
:10404000B42021F480411143CBF800102068800295
:1040500007D5D8F80010A26E21F080711143C8F87E
:1040600000102068400014D5DBF8001006E01EE0C8
:104070007044025854440258CFFFFF0021F400411D
:10408000CBF80010DBF80010D4F8B8201143CBF8BF
:1040900000102068002806DA0A480168226D21F025
:1040A0004051114301605EB10120BDE8F88FDAF89C
:1040B0000010E26F21F440711143CAF80010AEE71E
:1040C0000020F2E74C4402582DE9F047DFF8BC919C
:1040D00004460E46D9F8000000F00700B0420CD2AA
:1040E000D9F8001021F007013143C9F80010D9F8C0
:1040F000000000F00700B0427ED12078DFF8908108
:10410000800707D5D8F80010E26821F00F011143AD
:10411000C8F800102078C00762D0D8F80010A26854
:1041200021F470611143C8F80010594960681839CA
:1041300002281CD003281DD0096801281DD049077A
:10414000002960DA524F083F396821F00701014326
:104150003960FEF7F3FF0546606841F288310228B6
:1041600013D003281ED001288A4627D034E00968DE
:104170008903E5E709688901E2E7C905E0E7FEF799
:10418000DDFF411B514501D923E08A463868C0F361
:10419000C2000228F3D123E0FEF7D0FF411B5145B6
:1041A00001D916E08A463868C0F3C2000328F3D16B
:1041B00016E0FEF7C3FF411B51450AD83868C0F32B
:1041C000C2000128F5D10BE0FEF7B8FF411B5145B5
:1041D00002D90320BDE8F087386810F0380FF3D11A
:1041E000D9F80010484601F00701B1420DD9016825
:1041F00021F00701314300E005E00160006800F0B4
:104200000700B04201D00120E4E72078400707D53D
:10421000D8F80010226921F070011143C8F800108D
:10422000207801071B4805D50168626921F07001FB
:10423000114301602178C90605D50168A26921F4FE
:10424000E061114301602078800607D51149091DFE
:104250000868E26920F070001043086000F066F81A
:10426000D8F800104FF4807292FAA2F201F4706153
:10427000B2FA82F2D140084A515CC840074908604E
:104280000F20FEF777FF0020A4E700000020005277
:10429000184402581C440258F62701080000002464
:1042A00010B5FFF78DF908490968012292FAA2F2C8
:1042B00001F00F01B2FA82F2D140044A515CC840C9
:1042C0000349086010BD000018440258F627010891
:1042D0000400002410B5FFF7E3FF07490968102226
:1042E00092FAA2F201F07001B2FA82F2D140034ACE
:1042F000515CC84010BD00001C440258F62701085C
:1043000010B5FFF7CDFF074909684FF4807292FAA4
:10431000A2F201F4E061B2FA82F2D140024A515CA9
:10432000C84010BD1C440258F62701083548F0B5B6
:104330000068364D10F03801334809D004110829BF
:1043400004D0334E10290BD018290BD02046F0BDD5
:1043500029688906FBD52968C1F3C101C840F0BDB1
:104360003046F0BD274918310A68096812F0030287
:10437000284BC1F305111B68274F03F001033F6869
:10438000DFED260AB7EE001AC7F3CC0717FB03F3DD
:1043900000EE103A224BB8EE400A06D0012A01D0B6
:1043A000022A2BD0B4FBF1F008E02A68920603D56C
:1043B0002A68C2F3C102D040B0FBF1F001EE900ACE
:1043C0001868B8EE612AC0F3080001EE900A186878
:1043D000F8EE611A40EE201A31EE810A22EE000A50
:1043E000C0F34620401C00EE900AF8EE600A80EE12
:1043F000201ABCEEC10A10EE100AF0BDB6FBF1F0B7
:10440000DCE70000104402580090D003004402583A
:1044100040787D012C440258344402580000003991
:10442000304402582DE9F05F04460078DFF8FC8341
:1044300041F28839DFF8F8A3FE4DC0074ED0D8F816
:1044400000104046C1F3C20102291AD00068C0F32F
:10445000C200032805D1DAF8000000F003000228AA
:104460000FD06068B0F5803F12D010B1B0F5A02F2A
:1044700019D0286820F480302860286820F4802033
:1044800009E02868800329D56068002874D025E0F9
:10449000286840F480302860606890B1FEF74EFED6
:1044A00006464F4609E0286840F480202860EFE780
:1044B000FEF744FE801BB8427DD828688003F7D5FC
:1044C0000CE0FEF73BFE06464F4604E0FEF736FEE4
:1044D000801BB842F0D828688003F7D42078D64FE4
:1044E00080075AD5D8F8001040464FF47C3B11F0B5
:1044F000380F13D00068C0F3C200032803D1DAF8E4
:10450000000080070AD0E068A8B3296821F01901EB
:1045100001432960FEF712FE06461DE028684007A9
:1045200002D5E0680028B1D02868E16820F01900C1
:1045300008432860FEF702FE064604E0FEF7FEFD93
:10454000801B0228B8D828684007F7D507E0FEF797
:10455000F5FD801B0228AFD828684007F7D53868DA
:104560009BFAABF220F47C312069B2FA82F29040DF
:104570000143396011E000E0AEE0286820F001005E
:104580002860FEF7DBFD064604E0FEF7D7FD801B42
:10459000022891D828684007F7D42078C00655D55E
:1045A000D8F8001040464FF0F84BC1F3C201012982
:1045B00017D0006800E0EDE0C0F3C200032805D189
:1045C000DAF8000000F0030001280AD0E0690028B2
:1045D00028682CD040F080002860FEF7AFFD06462A
:1045E00016E02868C00502D5E069802874D13868D3
:1045F0009BFAABF220F0F841206AB2FA82F29040C6
:104600000143396022E0FEF799FD801B022899D80A
:104610002868C005F7D538689BFAABF2216AB2FA70
:1046200082F220F0F8409140084338600EE020F01C
:1046300080002860FEF782FD064604E0FEF77EFD5E
:10464000801B022887D82868C005F7D42078000787
:1046500024D5774F60694C37002838680FD040F078
:1046600001003860FEF76AFD064604E0FEF766FDCD
:10467000801B02288DD838688007F7D50EE020F01F
:1046800001003860FEF75AFD064604E0FEF756FDCD
:10469000801B02287ED838688007F7D420788006EF
:1046A00023D5A069002828680FD040F480502860E6
:1046B000FEF744FD064604E0FEF740FD801B02289D
:1046C00068D828688004F7D50FE020F4805028606F
:1046D000FEF734FD064605E0D6E0FEF72FFD801B11
:1046E000022857D828688004F7D42078400744D59A
:1046F000524F386840F480703860FEF71FFD064660
:1047000004E0FEF71BFD801B642843D83868C00511
:10471000F7D5474FA068483701280AD008B10528C7
:1047200011D0386820F001003860386820F00400AB
:1047300002E0386840F001003860A06888B1FEF7F8
:10474000FDFC064609E0386840F004003860F0E7F8
:10475000FEF7F4FC811B49451CD838688007F7D563
:104760000BE0FEF7EBFC064604E0FEF7E7FC811BDE
:1047700049450FD838688007F7D4606AF0B3D8F895
:104780000010C1F3C20103297ED00228286820F05E
:10479000807000E079E0286003D0FEF7CFFC04468B
:1047A00087E0FEF7CBFC064604E0FEF7C7FC801B63
:1047B00002287BD828688001F7D4DAF8001040F28C
:1047C000F3329143E26A41EA0211A26A1143CAF844
:1047D000001094F834004FF4FE02218E4002491E6E
:1047E000A0F5007080B2C1F308010843218F491E73
:1047F00002EA0141084394F83C1000E05CE0491EE5
:10480000120202EA016108430949083108600B1DE0
:1048100019684FF6F872A06C914392FAA2F2B2FABC
:1048200082F2904001431960014809E010440258A7
:1048300028440258004402580444025800480258D0
:10484000001D0168226C21F00C0111430160016818
:10485000626C21F0020111430160016841F4803172
:104860000160016841F400310160016841F4802178
:104870000160016841F001010160286840F080702A
:104880002860FEF75BFC01E018E00FE0044604E05E
:10489000FEF754FC001B022808D828688001F7D5D1
:1048A0000AE0FEF74BFC001B022802D90320BDE8FA
:1048B000F09F28688001F4D40020F8E70120F6E793
:1048C00070470068503050F8210070470068503041
:1048D00040F821207047000001480121FEF725BC67
:1048E000000402584FF0B04110B504464FF40020C8
:1048F000C1F888002168C868400508D5C86800F07C
:10490000800060F49060C8602046FFF7E5FF01205A
:1049100084F8210010BD000001A0FBF7DDBD000000
:10492000414C41524D2041210D0A00004FF0B04151
:1049300010B504464FF40030C1F88800216888683B
:10494000C0040BD5C868C00508D5C86800F0800051
:1049500060F4C070C8602046FFF7DEFF21688868F9
:1049600080040BD5C868800508D5C86800F08000B1
:1049700060F42070C8602046FFF7A2FF012084F891
:10498000210010BD10B500680B4641680D4801407C
:10499000080CD870C1F304245C7001F03F049C70D3
:1049A000C1F34231197052B904F05EFDD8705878E5
:1049B00004F05AFD5870987804F056FD9870002065
:1049C00010BD00003FFFFF0010B50B460168896A6B
:1049D000596001680969C1F30E01996000680168B6
:1049E0000E480140C1F305401870C1F306245C7005
:1049F00001F07F049C70402404EA1141D97052B93F
:104A000004F032FD1870587804F02EFD5870987834
:104A100004F02AFD9870002010BD00007F7F7F0009
:104A200070B5040003D094F8210010B107E0012014
:104A300070BD002084F82000204600F045F80220D8
:104A400084F821002168CA20486253202168486206
:104A5000204604F01DFDFF210028206804D041629B
:104A6000042084F82100E2E78268164B1A40826035
:104A7000206882686368A5691A4323692B431A4337
:104A800082602268E068106120680269238942EA36
:104A9000034202612068C26822F08002C26020687E
:104AA000C26C22F00302C264E269606902432068BA
:104AB000C36C1A43C26420684162012084F821005B
:104AC000002070BDBFFF8FFF00B5C3B0FEF770FDC3
:104AD00004202F9000203890012031902FA8FFF75C
:104AE000A1FC4FF48000009080132C906846FEF7E4
:104AF00093FE0348016841F40041016043B000BDEA
:104B0000704402582DE9F047044690F820000B4607
:104B1000012826D04FF0010984F82090022084F863
:104B20002100587802B304F09FFC987804F09CFCB4
:104B3000D978987840EA014558781978000240EA17
:104B4000413005432168CA204862532021684862E9
:104B5000204604F09DFC00264FF00408FF2758BBB8
:104B600019E00220BDE8F087C10603D500F0EF0090
:104B70000A305870D87804F080FC0204587804F0A9
:104B80007CFC42EA0022987804F077FC0243187813
:104B900042EA4035D6E71048054020684560206865
:104BA000C16821F08001C1602068806880060BD454
:104BB000204600F08FF838B12068476284F82180E1
:104BC000012084F82060CDE72068476284F82190B6
:104BD000002084F82060C5E73FFFFF002DE9F04783
:104BE000044690F820000D46012812D04FF0010A2B
:104BF00084F820A0022084F8210020680026806824
:104C00004FEA406042B100281ADA287804F02CFC00
:104C100017E00220BDE8F087002800DBEE7028785E
:104C200004F02BFC0204687804F027FC42EA00221E
:104C3000A87804F022FC0243E87842EA00470AE040
:104C4000EE702978A87840EA01476878E978000290
:104C500040EA014007432168CA2048625320216886
:104C60004862204604F014FC4FF0FF084FF004099E
:104C7000E0B917480740206807602068816821F480
:104C800080218160D5E903100143206882681143C7
:104C900081602068C16821F08001C160206880685F
:104CA00080060CD4204600F015F840B12168C1F808
:104CB000248084F82190012084F82060AAE72168EC
:104CC000C1F8248084F821A0002084F82060A1E7A6
:104CD0007F7F7F0070B505460068C16821F0A001A4
:104CE000C160FEF72BFA4FF47A76044606E0FEF731
:104CF00025FA001BB04201D9032070BD2868C068A6
:104D00008006F4D5002070BD70B504000D4603D0B8
:104D100094F82C0010B107E0012070BD002084F849
:104D20002D00204600F018F8022084F82C0020689E
:104D3000211DFCF727FDD4E900022946FCF762FD9E
:104D40000448016841F000410160012084F82C0012
:104D5000002070BD004000523A4800B587B001689D
:104D600041F002010160006800F002000590354842
:104D70002038016841F480510160006800F48050DF
:104D8000059030481438016841F004010160016861
:104D900001F004010591016841F00801016001681A
:104DA00001F008010591016841F0100101600168FE
:104DB00001F010010591016841F0200101600168D6
:104DC00001F020010591016841F040010160006897
:104DD000002100F0400005904FF0806000F0D4F812
:104DE00000214FF0006000F0CFF80D20009002206D
:104DF000019001200290032003900C20049012489F
:104E00006946FEF799F84CF2037000900F48694626
:104E1000FEF792F84FF6837000900D486946FEF752
:104E20008BF84FF63F0000900A486946FEF784F879
:104E300048F23710009008486946FEF77DF807B041
:104E400000BD0000F444025800080258000C02584B
:104E500000100258001402580018025810B50446F9
:104E600090F82C00022809D0022084F82C00206839
:104E7000FCF7B0FC012084F82C00002010BD70B5B8
:104E8000044690F82C000D4602280CD0022084F82D
:104E90002C002068FCF7A4FC2868022804D001201C
:104EA00084F82C00002070BD0520F9E770B50400DF
:104EB00015460E4603D094F8450010B107E00120D6
:104EC00070BD002084F84400204600F021F82068DE
:104ED00004F10801FCF7ECFBA26831462068FCF7FE
:104EE00023FCE36A2946D4E90102FCF7C1FBA1686F
:104EF000206850F8212042F0010240F821200348A8
:104F0000016841F000410160002070BD0040005286
:104F10001A4800B587B0016841F48051016000680B
:104F200000F48050059015480C30016841F00801EC
:104F30000160016801F008010591016841F010016C
:104F400001600068694600F0100005904EF2B370F1
:104F500000900220019001200290032003900C2079
:104F600004900748FDF7E8FF4FF680700090054871
:104F70006946FDF7E1FF07B000BD0000D4440258C8
:104F8000000C025800100258024A136883430B4376
:104F9000136070470404005803490A6822F4600251
:104FA00002430A6070470000040400584FF0E021FB
:104FB0000428086903D020F004000861704740F01D
:104FC0000400FAE7401EB0F1807F10B501D3012044
:104FD00010BD4FF0E02460610F21601705F01FF94C
:104FE0000020A06107202061002010BD704770479D
:104FF00010B5040003D094F83D0010B107E0012083
:1050000010BD002084F83C00204600F00DF802207E
:1050100084F83D002068211D04F07CFC012084F808
:105020003D00002010BD000008B500680B49884213
:1050300012D10B48016841F00201016000680322AF
:10504000012100F0020000901D20FEF77FFABDE86C
:1050500008401D20FEF76DBA08BD000000040040A6
:10506000E84402580168CA6842F00102CA60006858
:10507000018841F00101018000207047704770B540
:105080000446006801694FF00005C943890715D43B
:10509000C168C943890711D4E91E01610120207745
:1050A000206880698007204602D0FFF7E7FF04E010
:1050B00000F0A5F8204600F0A3F8257720680169E4
:1050C000C943490717D4C168C943490713D46FF0CE
:1050D00004010161022020772068806910F4407F7C
:1050E000204602D0FFF7CAFF04E000F088F820460F
:1050F00000F086F8257720680169C943090716D4AE
:10510000C168C943090712D46FF008010161042086
:1051100020772068C0698007204602D0FFF7AEFFE5
:1051200004E000F06CF8204600F06AF8257720686B
:105130000169C943C90617D4C168C943C90613D454
:105140006FF010010161082020772068C06910F419
:10515000407F204602D0FFF791FF04E000F04FF8B7
:10516000204600F04DF8257720680169C943C9073A
:1051700008D1C168C943C90704D1891E016120460D
:1051800000F040F8206801696FF08005C943090606
:1051900007D4C168C943090603D405612046FFF757
:1051A00025FF20680169C943C90507D4C168C943FF
:1051B000090603D405612046FFF718FF206801693E
:1051C000C943490609D4C168C943490605D46FF0EB
:1051D00040010161204600F021F820680169C943BF
:1051E00089060BD4C168C943890607D46FF0200132
:1051F00001612046BDE87040FFF7F9BE70BD704701
:10520000704700000349884203D1034801680A310E
:105210000160704718050024900100247047704712
:10522000704790F8791090F87A00084370470000B2
:1052300070B502680446D0691368916810F00F0FCA
:1052400064D0594D03F490760D40354376D0C507B0
:1052500007D0DD0505D501251562E26F42F0010298
:10526000E267820708D5CA0706D0256802222A62AB
:10527000E26F42F00402E267420708D5CA0706D08F
:10528000256804222A62E26F42F00202E267020706
:105290000ED503F0200201F080552A4352EAC17274
:1052A00006D0256808222A62E26F42F00802E2670F
:1052B000E26F002A3AD0800608D503F0200001F002
:1052C0008051084302D0204604F08AFCE06F0007BA
:1052D00003D42068806840062AD5204604F072FC7A
:1052E0002068816849061ED5816821F040018160EF
:1052F000606FC0B12D490165606FFDF7E1F80028CE
:1053000014D0606F016DBDE870400847850615D563
:1053100003F0200501F0805635430FD02046BDE84C
:10532000704004F05DBC2046FFF77AFF70BD05E0D9
:105330002046FFF775FF0020E067F7E7C6024FF051
:1053400020050CD54E020AD5E803106284F8795086
:1053500084F87A502046BDE87040FFF760BF06062B
:105360000AD503F0800601F400010E4304D0204664
:10537000BDE8704004F0C4BE41060BD5590609D5FE
:105380001168204621F04001116084F8795000F046
:1053900005F9CBE70002C9D55800C7D5106820F041
:1053A00080401060C2E7000001000010B19B0008BF
:1053B00010B5040003D094F8790010B107E0012083
:1053C00010BD002084F87800204600F027F8242043
:1053D00084F879002068016821F00101016020460D
:1053E00004F03AFC0128EBD0606B10B1204604F0C9
:1053F0004DFB2068416821F490414160206881683C
:1054000021F02A0181602068016841F001010160FA
:105410002046BDE8104004F09DBB000010B50068B8
:1054200086B01B49884230D11A48016841F0010119
:105430000160006800F00100059016481030016816
:1054400041F01001016000680121134C00F01000D0
:1054500005904FF4007000900220CDE90101039007
:105460000720694604902046FDF766FD4FF48061F1
:10547000204600916946FDF75FFD2520FEF759F8AB
:10548000032225201146FEF761F806B010BD00008A
:1054900000100140E04402580000025890F87A30B1
:1054A000202B4CD1B9B1B2B190F87830012B46D055
:1054B000012380F878304166A0F86820A0F86A20BF
:1054C000FF228168B1F5805F07D07F2351B1B1F130
:1054D000805F0CD010E001207047016921B940F2D3
:1054E000FF1107E0016909BBA0F86C2004E0016925
:1054F000E1B13F21A0F86C100021C167222280F8A1
:105500007A2080F8781001688A6842F001028A6087
:1055100001680A6892000CD50A6842F480720A6039
:105520000068816841F08051816006E0A0F86C302D
:10553000E2E7086840F4907008600020704702209D
:105540007047000030B50068114988420CD1114AFB
:105550005088010408D411464FF000034404097830
:1055600006D50A2901D0538030BD40F400400DE03B
:105570000D2909D0084DC0F30D04401C80B2C72886
:1055800029555080EFD830BD40F48040508030BD68
:10559000001001400C000024780200247047FEE750
:1055A00010B5124C002210212046FDF7C2FD2068E4
:1055B00020F440602060206840F480602060002279
:1055C00020462021FDF7B5FD022004F067FE0122F0
:1055D00020461021FDF7ADFD022004F05FFE002201
:1055E0002046BDE810401021FDF7A3BD001C025865
:1055F000114810B586B0016841F080010160006873
:1056000069460E4C00F0800005903020009001208B
:1056100001900290032003902046FDF78DFC0122AB
:1056200020462021FDF785FD012220461021FDF7AF
:1056300080FD06B010BD0000E0440258001C025876
:1056400010B5124C002210212046FDF772FD206893
:1056500020F440602060206840F4806020600122D7
:1056600020462021FDF765FD022004F017FE0122EF
:1056700020461021FDF75DFD022004F00FFE002200
:105680002046BDE810401021FDF753BD001C025814
:105690002DE9F041174E07460024306820F44060A1
:1056A0003060306830602546002230461021FDF71A
:1056B00040FD022004F0F2FD012230461021FDF7EA
:1056C00038FD60062021040E3046FDF729FD08B1A3
:1056D000641CE4B2012004F0E1FD6D1CEDB2082D64
:1056E000E2D327B1FFF75CFF2046BDE8F081FFF76A
:1056F000A7FFF9E7001C025870B5194E0546304661
:10570000316821F440613160316841F48061316079
:1057100000221021FDF70DFD0024280601D50122ED
:1057200000E0002230462021FDF703FD6806050E4B
:10573000022004F0B3FD012230461021FDF7F9FCF0
:10574000022004F0ABFD002230461021FDF7F1FCF1
:10575000022004F0A3FD641CE4B2082CDDD370BD6C
:10576000001C025810B5124C206820F440602060E4
:10577000206840F480602060012220462021FDF74F
:10578000D8FC012220461021FDF7D3FC042004F0B0
:1057900085FD002220462021FDF7CBFC042004F0EB
:1057A0007DFD00222046BDE810401021FDF7C1BC60
:1057B000001C025810B5124C206820F44060206094
:1057C000206840F480602060002220461021FDF710
:1057D000B0FC002220462021FDF7ABFC042004F0A1
:1057E0005DFD012220461021FDF7A3FC0122204689
:1057F0002021FDF79EFCBDE81040042004F04EBDC2
:10580000001C025870B5174D0024286820F4406031
:10581000286028682860012220212846FDF789FC9D
:10582000012004F03BFD012228461021FDF781FCF8
:10583000012004F033FD07E0641CE4B2FA2C03D924
:10584000FFF7B8FF012070BD20212846FDF768FC56
:105850000028F1D1002228461021FDF76AFC002023
:1058600070BD0000001C02581B4870B586B001686E
:1058700041F001010160016801F001010591016839
:1058800041F004010160016801F004010591016823
:1058900041F080010160006803240025694600F0A2
:1058A0008000059002200126CDE902040B48CDE9D5
:1058B0000065FDF741FB700303948DE86100084823
:1058C0006946FDF739FB0C20009006486946FDF754
:1058D00033FB06B070BD0000E044025800000258DF
:1058E00000080258001C02582DE9F0470126304CF0
:1058F000DFF8C080DFF8C0907703304D01281DD05D
:105900002078A0B108212846FDF70AFCC0B1042187
:105910002846FDF705FC98B139464046FDF700FCE6
:1059200070B101214846FDF7FBFB012808D0082192
:105930002846FDF7F5FB012826D037E02670E1E781
:105940000A2004F09DFC0020207008212846FDF765
:10595000E7FB80B104212846FDF7E2FB70B1394630
:105960004046FDF7DDFB58B101214846FDF7D8FB65
:10597000012807D01AE00120BDE8F0870220FBE7EC
:105980000320F9E70420F7E704212846FDF7C8FBC8
:1059900001280BD139464046FDF7C2FB012805D14D
:1059A00001214846FDF7BCFB00B926700020E3E763
:1059B000200000240008025800000258001C025871
:1059C00008B5002069460090012000F007F9012089
:1059D000694600F003F90098400701D4012008BD92
:1059E0000020694600F0FAF80098C10408D44FF48A
:1059F0000451814317D0810417D4C00517D410E097
:105A00001F20694600F0EAF80098C10401D406207E
:105A100008BDC0F38200062805D0022805D005285D
:105A200005D0052008BD022008BD032008BD0420C4
:105A300008BD0000FEB5002425460294FAF7ADFC2F
:105A40000121072003F0C0FB642004F019FC0021B1
:105A5000072003F0B9FB642004F012FCFAF79FFC66
:105A600003F03EFB3A4801788DF8001041788DF83C
:105A7000011081788DF80210C1788DF8031001793A
:105A80008DF8041040798DF80500334831490160E4
:105A90000121C0F804D00172304901613049C16070
:105AA0004FF4BF614161FCF701FF2B48FDF716F988
:105AB00000204FF4004100F0AFF800284FF4FA76D0
:105AC00019DB002002A900F089F8671F00280CDA12
:105AD0000FE0002002A900F081F8002809DB0A206D
